:03000000000000fd
:0300010003ff9b5f
:0300020003ff37c2
:0300030003fed227
:0300040003fe6e8a
:0300050003fe09ee
:0300060003fda552
:0300070003fd40b6
:0300080003fcdc1a
:0300090003fc777e
:03000a0003fc13e1
:03000b0003fbae46
:03000c0003fb4aa9
:03000d0003fae50e
:03000e0003fa8171
:03000f0003fa1cd5
:0300100003f9b839
:0300110003f9539d
:0300120003f8ef01
:0300130003f88a65
:0300140003f825c9
:0300150003f7c12d
:0300160003f75c91
:0300170003f6f8f5
:0300180003f69359
:0300190003f62fbc
:03001a0003f5ca21
:03001b0003f56684
:03001c0003f501e8
:03001d0003f49d4c
:03001e0003f438b0
:03001f0003f3d414
:0300200003f36f78
:0300210003f30bdb
:0300220003f2a640
:0300230003f242a3
:0300240003f1dd08
:0300250003f1796b
:0300260003f114cf
:0300270003f0b033
:0300280003f04b97
:0300290003efe7fb
:03002a0003ef825f
:03002b0003ef1ec2
:03002c0003eeba26
:03002d0003ee558a
:03002e0003edf1ee
:03002f0003ed8c52
:0300300003ed28b5
:0300310003ecc31a
:0300320003ec5f7d
:0300330003ebfae2
:0300340003eb9645
:0300350003eb31a9
:0300360003eacd0d
:0300370003ea6871
:0300380003ea04d4
:0300390003e9a038
:03003a0003e93b9c
:03003b0003e8d700
:03003c0003e87264
:03003d0003e80ec7
:03003e0003e7a92c
:03003f0003e7458f
:0300400003e6e1f3
:0300410003e67c57
:0300420003e618ba
:0300430003e5b31f
:0300440003e54f82
:0300450003e4ebe6
:0300460003e4864a
:0300470003e422ad
:0300480003e3be11
:0300490003e35975
:03004a0003e2f5d9
:03004b0003e2903d
:03004c0003e22ca0
:03004d0003e1c804
:03004e0003e16368
:03004f0003e0ffcc
:0300500003e09b2f
:0300510003e03693
:0300520003dfd2f7
:0300530003df6e5a
:0300540003df09be
:0300550003dea522
:0300560003de4185
:0300570003dddcea
:0300580003dd784d
:0300590003dd14b0
:03005a0003dcaf15
:03005b0003dc4b78
:03005c0003dbe7dc
:03005d0003db833f
:03005e0003db1ea3
:03005f0003daba07
:0300600003da566a
:0300610003d9f2ce
:0300620003d98d32
:0300630003d92995
:0300640003d8c5f9
:0300650003d8615c
:0300660003d7fcc1
:0300670003d79824
:0300680003d73487
:0300690003d6d0eb
:03006a0003d66c4e
:03006b0003d607b2
:03006c0003d5a316
:03006d0003d53f79
:03006e0003d4dbdd
:03006f0003d47740
:0300700003d412a4
:0300710003d3ae08
:0300720003d34a6b
:0300730003d2e6cf
:0300740003d28232
:0300750003d21e95
:0300760003d1baf9
:0300770003d1565c
:0300780003d0f1c1
:0300790003d08d24
:03007a0003d02987
:03007b0003cfc5eb
:03007c0003cf614e
:03007d0003cefdb2
:03007e0003ce9915
:03007f0003ce3578
:0300800003cdd1dc
:0300810003cd6d3f
:0300820003cd09a2
:0300830003cca506
:0300840003cc4169
:0300850003cbddcd
:0300860003cb7930
:0300870003cb1593
:0300880003cab1f7
:0300890003ca4d5a
:03008a0003c9e9be
:03008b0003c98521
:03008c0003c92184
:03008d0003c8bde8
:03008e0003c8594b
:03008f0003c7f5af
:0300900003c79112
:0300910003c72d75
:0300920003c6c9d9
:0300930003c6653c
:0300940003c6019f
:0300950003c59e02
:0300960003c53a65
:0300970003c4d6c9
:0300980003c4722c
:0300990003c40e8f
:03009a0003c3aaf3
:03009b0003c34656
:03009c0003c2e3b9
:03009d0003c27f1c
:03009e0003c21b7f
:03009f0003c1b7e3
:0300a00003c15445
:0300a10003c0f0a9
:0300a20003c08c0c
:0300a30003c0286f
:0300a40003bfc4d3
:0300a50003bf6135
:0300a60003befd99
:0300a70003be99fc
:0300a80003be365e
:0300a90003bdd2c2
:0300aa0003bd6e25
:0300ab0003bd0b87
:0300ac0003bca7eb
:0300ad0003bc434e
:0300ae0003bbe0b1
:0300af0003bb7c14
:0300b00003bb1877
:0300b10003bab5da
:0300b20003ba513d
:0300b30003b9eea0
:0300b40003b98a03
:0300b50003b92666
:0300b60003b8c3c9
:0300b70003b85f2c
:0300b80003b7fc8f
:0300b90003b798f2
:0300ba0003b73554
:0300bb0003b6d1b8
:0300bc0003b66e1a
:0300bd0003b60a7d
:0300be0003b5a7e0
:0300bf0003b54343
:0300c00003b4e0a6
:0300c10003b47c09
:0300c20003b4196b
:0300c30003b3b6ce
:0300c40003b35231
:0300c50003b2ef94
:0300c60003b28bf7
:0300c70003b22859
:0300c80003b1c5bc
:0300c90003b1611f
:0300ca0003b0fe82
:0300cb0003b09be4
:0300cc0003b03747
:0300cd0003afd4aa
:0300ce0003af710c
:0300cf0003af0e6e
:0300d00003aeaad2
:0300d10003ae4734
:0300d20003ade497
:0300d30003ad81f9
:0300d40003ad1d5c
:0300d50003acbabf
:0300d60003ac5721
:0300d70003abf484
:0300d80003ab91e6
:0300d90003ab2e48
:0300da0003aacaac
:0300db0003aa670e
:0300dc0003aa0470
:0300dd0003a9a1d3
:0300de0003a93e35
:0300df0003a8db98
:0300e00003a878fa
:0300e10003a8155c
:0300e20003a7b2bf
:0300e30003a74f21
:0300e40003a6ec84
:0300e50003a689e6
:0300e60003a62648
:0300e70003a5c3ab
:0300e80003a5600d
:0300e90003a4fd70
:0300ea0003a49ad2
:0300eb0003a43734
:0300ec0003a3d497
:0300ed0003a371f9
:0300ee0003a30e5b
:0300ef0003a2acbd
:0300f00003a2491f
:0300f10003a1e682
:0300f20003a183e4
:0300f30003a12046
:0300f40003a0bea8
:0300f50003a05b0a
:0300f600039ff86d
:0300f700039f95cf
:0300f800039f3330
:0300f900039ed093
:0300fa00039e6df5
:0300fb00039e0a57
:0300fc00039da8b9
:0300fd00039d451b
:0300fe00039ce37d
:0300ff00039c80df
:03010000039c1d40
:03010100039bbba2
:03010200039b5804
:03010300039af666
:03010400039a93c8
:03010500039a3129
:030106000399ce8c
:0301070003996bee
:030108000399094f
:030109000398a7b1
:03010a0003984413
:03010b000397e275
:03010c0003977fd7
:03010d0003971d38
:03010e000396ba9b
:03010f00039658fc
:030110000395f65e
:03011100039593c0
:0301120003953121
:030113000394cf83
:0301140003946ce5
:0301150003940a46
:030116000393a8a8
:0301170003934609
:030118000392e36c
:03011900039281cd
:03011a0003921f2e
:03011b000391bd90
:03011c0003915bf1
:03011d000390f953
:03011e00039096b5
:03011f0003903416
:03012000038fd278
:03012100038f70d9
:03012200038f0e3a
:03012300038eac9c
:03012400038e4afd
:03012500038de85f
:03012600038d86c0
:03012700038d2421
:03012800038cc283
:03012900038c60e4
:03012a00038bfe46
:03012b00038b9ca7
:03012c00038b3a08
:03012d00038ad86a
:03012e00038a77ca
:03012f00038a152b
:030130000389b38d
:03013100038951ee
:030132000388ef50
:0301330003888eb0
:0301340003882c11
:030135000387ca73
:03013600038768d4
:0301370003870734
:030138000386a596
:03013900038643f7
:03013a000385e258
:03013b00038580b9
:03013c0003851f19
:03013d000384bd7b
:03013e0003845bdc
:03013f000383fa3d
:030140000383989e
:03014100038337fe
:030142000382d560
:03014300038274c0
:0301440003821221
:030145000381b182
:03014600038150e2
:030147000380ee44
:0301480003808da4
:0301490003802b05
:03014a00037fca66
:03014b00037f69c6
:03014c00037f0826
:03014d00037ea688
:03014e00037e45e8
:03014f00037de449
:03015000037d83a9
:03015100037d210a
:03015200037cc06b
:03015300037c5fcb
:03015400037bfe2c
:03015500037b9d8c
:03015600037b3cec
:03015700037adb4d
:03015800037a79ae
:03015900037a180e
:03015a000379b76f
:03015b00037956cf
:03015c000378f530
:03015d0003789490
:03015e00037834ef
:03015f000377d350
:03016000037772b0
:0301610003771110
:030162000376b071
:0301630003764fd1
:030164000375ee32
:0301650003758e91
:0301660003752df1
:030167000374cc52
:0301680003746bb2
:0301690003740b11
:03016a000373aa72
:03016b00037349d2
:03016c000372e932
:03016d0003728892
:03016e00037227f2
:03016f000371c752
:03017000037166b2
:0301710003710611
:030172000370a572
:03017300037045d1
:03017400036fe432
:03017500036f8491
:03017600036f23f1
:03017700036ec351
:03017800036e62b1
:03017900036e0210
:03017a00036da270
:03017b00036d41d0
:03017c00036ce130
:03017d00036c818f
:03017e00036c21ee
:03017f00036bc04f
:03018000036b60ae
:03018100036b000d
:03018200036aa06d
:03018300036a40cc
:030184000369df2d
:0301850003697f8c
:0301860003691feb
:030187000368bf4b
:0301880003685faa
:030189000367ff0a
:03018a0003679f69
:03018b0003673fc8
:03018c000366df28
:03018d0003667f87
:03018e0003661fe6
:03018f000365c045
:03019000036560a4
:0301910003650003
:030192000364a063
:03019300036440c2
:030194000363e121
:0301950003638180
:03019600036321df
:030197000362c13f
:030198000362629d
:03019900036202fc
:03019a000361a35b
:03019b00036143ba
:03019c000360e31a
:03019d0003608478
:03019e00036024d7
:03019f00035fc536
:0301a000035f6595
:0301a100035f06f3
:0301a200035ea752
:0301a300035e47b1
:0301a400035de810
:0301a500035d886f
:0301a600035d29cd
:0301a700035cca2c
:0301a800035c6b8a
:0301a900035c0be9
:0301aa00035bac48
:0301ab00035b4da6
:0301ac00035aee05
:0301ad00035a8f63
:0301ae00035a2fc2
:0301af000359d021
:0301b0000359717f
:0301b100035912dd
:0301b2000358b33c
:0301b3000358549a
:0301b4000357f5f9
:0301b50003579657
:0301b600035737b5
:0301b7000356d814
:0301b80003567a71
:0301b90003561bcf
:0301ba000355bc2e
:0301bb0003555d8c
:0301bc000354feeb
:0301bd000354a048
:0301be00035441a6
:0301bf000353e205
:0301c00003538462
:0301c100035325c0
:0301c2000352c61f
:0301c3000352687c
:0301c400035209da
:0301c5000351ab38
:0301c60003514c96
:0301c7000350eef4
:0301c80003508f52
:0301c900035031af
:0301ca00034fd20e
:0301cb00034f746b
:0301cc00034f16c8
:0301cd00034eb727
:0301ce00034e5984
:0301cf00034dfbe2
:0301d000034d9c40
:0301d100034d3e9d
:0301d200034ce0fb
:0301d300034c8258
:0301d400034c24b5
:0301d500034bc613
:0301d600034b6870
:0301d700034b09ce
:0301d800034aab2c
:0301d900034a4d89
:0301da000349efe7
:0301db0003499243
:0301dc00034934a0
:0301dd000348d6fe
:0301de000348785b
:0301df0003481ab8
:0301e0000347bc16
:0301e10003475e73
:0301e200034701cf
:0301e3000346a32d
:0301e4000346458a
:0301e5000345e8e7
:0301e60003458a44
:0301e70003452ca1
:0301e8000344cffe
:0301e9000344715b
:0301ea00034414b7
:0301eb000343b615
:0301ec0003435971
:0301ed000342fbcf
:0301ee0003429e2b
:0301ef0003424088
:0301f0000341e3e5
:0301f10003418641
:0301f2000341289e
:0301f3000340cbfb
:0301f40003406e57
:0301f500034011b3
:0301f600033fb410
:0301f700033f566d
:0301f800033ef9ca
:0301f900033e9c26
:0301fa00033e3f82
:0301fb00033de2df
:0301fc00033d853b
:0301fd00033d2897
:0301fe00033ccbf4
:0301ff00033c6e50
:03020000033c11ab
:03020100033bb408
:03020200033b5863
:03020300033afbc0
:03020400033a9e1c
:03020500033a4178
:030206000339e5d4
:0302070003398830
:0302080003392b8c
:030209000338cfe8
:03020a0003387244
:03020b00033815a0
:03020c000337b9fc
:03020d0003375c58
:03020e00033700b3
:03020f000336a310
:030210000336476b
:030211000335ebc7
:0302120003358e23
:030213000335327e
:030214000334d6da
:0302150003347936
:0302160003341d91
:030217000333c1ed
:0302180003336548
:03021900033309a3
:03021a000332adff
:03021b000332515a
:03021c000331f4b7
:03021d0003319812
:03021e0003313c6d
:03021f000330e1c8
:0302200003308523
:030221000330297e
:03022200032fcdda
:03022300032f7135
:03022400032f1590
:03022500032eb9ec
:03022600032e5e46
:03022700032e02a1
:03022800032da6fd
:03022900032d4b57
:03022a00032cefb3
:03022b00032c940d
:03022c00032c3868
:03022d00032bddc3
:03022e00032b811e
:03022f00032b2678
:03023000032acad4
:03023100032a6f2e
:03023200032a1389
:030233000329b8e4
:0302340003295d3e
:0302350003290298
:030236000328a6f4
:0302370003284b4e
:030238000327f0a9
:0302390003279503
:03023a0003273a5d
:03023b000326dfb8
:03023c0003268412
:03023d000326296c
:03023e000325cec7
:03023f0003257321
:030240000325187b
:030241000324bdd6
:0302420003246230
:030243000324078a
:030244000323ade4
:030245000323523e
:030246000322f799
:0302470003229df2
:030248000322424c
:030249000321e7a7
:03024a0003218d00
:03024b000321325a
:03024c000320d8b4
:03024d0003207d0e
:03024e0003202367
:03024f00031fc8c2
:03025000031f6e1b
:03025100031f1474
:03025200031ebace
:03025300031e5f28
:03025400031e0581
:03025500031dabdb
:03025600031d5134
:03025700031cf78e
:03025800031c9ce8
:03025900031c4241
:03025a00031be89b
:03025b00031b8ef4
:03025c00031b344d
:03025d00031adba6
:03025e00031a81ff
:03025f00031a2758
:030260000319cdb2
:030261000319730b
:0302620003191964
:030263000318c0bd
:0302640003186616
:0302650003180c6f
:030266000317b3c8
:0302670003175921
:0302680003170079
:030269000316a6d3
:03026a0003164d2b
:03026b000315f385
:03026c0003159add
:03026d0003154135
:03026e000314e78f
:03026f0003148ee7
:030270000314353f
:030271000313dc98
:03027200031382f1
:0302730003132949
:030274000312d0a2
:03027500031277fa
:0302760003121e52
:030277000311c5ab
:0302780003116c03
:030279000311135b
:03027a000310bab4
:03027b000310610c
:03027c0003100864
:03027d00030fb0bc
:03027e00030f5714
:03027f00030efe6d
:03028000030ea6c4
:03028100030e4d1c
:03028200030df475
:03028300030d9ccc
:03028400030d4324
:03028500030ceb7c
:03028600030c92d4
:03028700030c3a2b
:03028800030be184
:03028900030b89db
:03028a00030b3132
:03028b00030ad98a
:03028c00030a80e2
:03028d00030a2839
:03028e000309d091
:03028f00030978e8
:030290000309203f
:030291000308c897
:03029200030870ee
:0302930003081845
:030294000307c09d
:03029500030768f4
:030296000307104b
:030297000306b8a3
:03029800030660fa
:0302990003060950
:03029a000305b1a8
:03029b00030559ff
:03029c0003050255
:03029d000304aaad
:03029e0003045204
:03029f000303fb5b
:0302a0000303a3b2
:0302a10003034c08
:0302a2000302f460
:0302a30003029db6
:0302a4000302460c
:0302a5000301ee64
:0302a600030197ba
:0302a70003014010
:0302a8000300e967
:0302a900030092bd
:0302aa0003003b13
:0302ab0002ffe36c
:0302ac0002ff8cc2
:0302ad0002ff3518
:0302ae0002fedf6e
:0302af0002fe88c4
:0302b00002fe311a
:0302b10002fdda71
:0302b20002fd83c7
:0302b30002fd2c1d
:0302b40002fcd673
:0302b50002fc7fc9
:0302b60002fc281f
:0302b70002fbd275
:0302b80002fb7bcb
:0302b90002fb2520
:0302ba0002face77
:0302bb0002fa78cc
:0302bc0002fa2122
:0302bd0002f9cb78
:0302be0002f975cd
:0302bf0002f91e23
:0302c00002f8c879
:0302c10002f872ce
:0302c20002f81c23
:0302c30002f7c679
:0302c40002f76fcf
:0302c50002f71924
:0302c60002f6c37a
:0302c70002f66dcf
:0302c80002f61724
:0302c90002f5c279
:0302ca0002f56cce
:0302cb0002f51623
:0302cc0002f4c079
:0302cd0002f46ace
:0302ce0002f41522
:0302cf0002f3bf78
:0302d00002f36acc
:0302d10002f31421
:0302d20002f2be77
:0302d30002f269cb
:0302d40002f21320
:0302d50002f1be75
:0302d60002f169c9
:0302d70002f1131e
:0302d80002f0be73
:0302d90002f069c7
:0302da0002f0141b
:0302db0002efbf70
:0302dc0002ef69c5
:0302dd0002ef1419
:0302de0002eebf6e
:0302df0002ee6ac2
:0302e00002ee1516
:0302e10002edc06b
:0302e20002ed6cbe
:0302e30002ed1712
:0302e40002ecc267
:0302e50002ec6dbb
:0302e60002ec180f
:0302e70002ebc463
:0302e80002eb6fb7
:0302e90002eb1b0a
:0302ea0002eac65f
:0302eb0002ea72b2
:0302ec0002ea1d06
:0302ed0002e9c95a
:0302ee0002e974ae
:0302ef0002e92001
:0302f00002e8cc55
:0302f10002e877a9
:0302f20002e823fc
:0302f30002e7cf50
:0302f40002e77ba3
:0302f50002e727f6
:0302f60002e6d34a
:0302f70002e67f9d
:0302f80002e62bf0
:0302f90002e5d744
:0302fa0002e58397
:0302fb0002e52fea
:0302fc0002e4dc3d
:0302fd0002e48890
:0302fe0002e434e3
:0302ff0002e3e037
:0303000002e38d88
:0303010002e339db
:0303020002e2e62e
:0303030002e29281
:0303040002e23fd3
:0303050002e1eb27
:0303060002e19879
:0303070002e145cb
:0303080002e0f21e
:0303090002e09e71
:03030a0002e04bc3
:03030b0002dff816
:03030c0002dfa568
:03030d0002df52ba
:03030e0002deff0d
:03030f0002deac5f
:0303100002de59b1
:0303110002de0603
:0303120002ddb356
:0303130002dd60a8
:0303140002dd0ef9
:0303150002dcbb4c
:0303160002dc689e
:0303170002dc16ef
:0303180002dbc342
:0303190002db7193
:03031a0002db1ee5
:03031b0002dacc37
:03031c0002da7989
:03031d0002da27da
:03031e0002d9d52c
:03031f0002d9827e
:0303200002d930cf
:0303210002d8de21
:0303220002d88c72
:0303230002d83ac3
:0303240002d7e815
:0303250002d79666
:0303260002d744b7
:0303270002d6f209
:0303280002d6a05a
:0303290002d64eab
:03032a0002d5fdfc
:03032b0002d5ab4d
:03032c0002d5599e
:03032d0002d508ee
:03032e0002d4b640
:03032f0002d46491
:0303300002d413e1
:0303310002d3c133
:0303320002d37083
:0303330002d31fd3
:0303340002d2cd25
:0303350002d27c75
:0303360002d22bc5
:0303370002d1da16
:0303380002d18966
:0303390002d137b7
:03033a0002d0e608
:03033b0002d09558
:03033c0002d044a8
:03033d0002cff4f8
:03033e0002cfa348
:03033f0002cf5298
:0303400002cf01e8
:0303410002ceb039
:0303420002ce6088
:0303430002ce0fd8
:0303440002cdbe29
:0303450002cd6e78
:0303460002cd1dc8
:0303470002cccd18
:0303480002cc7d67
:0303490002cc2cb7
:03034a0002cbdc07
:03034b0002cb8c56
:03034c0002cb3ba6
:03034d0002caebf6
:03034e0002ca9b45
:03034f0002ca4b94
:0303500002c9fbe4
:0303510002c9ab33
:0303520002c95b82
:0303530002c90bd1
:0303540002c8bb21
:0303550002c86c6f
:0303560002c81cbe
:0303570002c7cc0e
:0303580002c77d5c
:0303590002c72dab
:03035a0002c6ddfb
:03035b0002c68e49
:03035c0002c63e98
:03035d0002c5efe7
:03035e0002c5a035
:03035f0002c55084
:0303600002c501d2
:0303610002c4b221
:0303620002c4636f
:0303630002c413be
:0303640002c3c40d
:0303650002c3755b
:0303660002c326a9
:0303670002c2d7f8
:0303680002c28846
:0303690002c23a93
:03036a0002c1ebe2
:03036b0002c19c30
:03036c0002c14d7e
:03036d0002c0ffcc
:03036e0002c0b01a
:03036f0002c06267
:0303700002c013b5
:0303710002bfc503
:0303720002bf7651
:0303730002bf289e
:0303740002bed9ed
:0303750002be8b3a
:0303760002be3d87
:0303770002bdefd5
:0303780002bda122
:0303790002bd536f
:03037a0002bd05bc
:03037b0002bcb70a
:03037c0002bc6957
:03037d0002bc1ba4
:03037e0002bbcdf2
:03037f0002bb7f3f
:0303800002bb318c
:0303810002bae4d9
:0303820002ba9626
:0303830002ba4972
:0303840002b9fbc0
:0303850002b9ad0d
:0303860002b96059
:0303870002b913a5
:0303880002b8c5f3
:0303890002b8783f
:03038a0002b82b8b
:03038b0002b7ded8
:03038c0002b79025
:03038d0002b74371
:03038e0002b6f6be
:03038f0002b6a90a
:0303900002b65c56
:0303910002b60fa2
:0303920002b5c3ee
:0303930002b5763a
:0303940002b52986
:0303950002b4dcd3
:0303960002b4901e
:0303970002b4436a
:0303980002b3f7b6
:0303990002b3aa02
:03039a0002b35e4d
:03039b0002b31199
:03039c0002b2c5e5
:03039d0002b27930
:03039e0002b22c7c
:03039f0002b1e0c8
:0303a00002b19413
:0303a10002b1485e
:0303a20002b0fcaa
:0303a30002b0b0f5
:0303a40002b06440
:0303a50002b0188b
:0303a60002afccd7
:0303a70002af8022
:0303a80002af356c
:0303a90002aee9b8
:0303aa0002ae9d03
:0303ab0002ae524d
:0303ac0002ae0698
:0303ad0002adbbe3
:0303ae0002ad6f2e
:0303af0002ad2478
:0303b00002acd9c3
:0303b10002ac8d0e
:0303b20002ac4258
:0303b30002abf7a3
:0303b40002abaced
:0303b50002ab6137
:0303b60002ab1681
:0303b70002aacbcc
:0303b80002aa8016
:0303b90002aa3560
:0303ba0002a9eaab
:0303bb0002a99ff5
:0303bc0002a9543f
:0303bd0002a90a88
:0303be0002a8bfd3
:0303bf0002a8751c
:0303c00002a82a66
:0303c10002a7e0b0
:0303c20002a795fa
:0303c30002a74b43
:0303c40002a7018c
:0303c50002a6b6d7
:0303c60002a66c20
:0303c70002a62269
:0303c80002a5d8b3
:0303c90002a58efc
:0303ca0002a54445
:0303cb0002a4fa8f
:0303cc0002a4b0d8
:0303cd0002a46621
:0303ce0002a41c6a
:0303cf0002a3d3b3
:0303d00002a389fc
:0303d10002a33f45
:0303d20002a2f68e
:0303d30002a2acd7
:0303d40002a2631f
:0303d50002a21968
:0303d60002a1d0b1
:0303d70002a187f9
:0303d80002a13d42
:0303d90002a0f48b
:0303da0002a0abd3
:0303db0002a0621b
:0303dc0002a01963
:0303dd00029fd0ac
:0303de00029f87f4
:0303df00029f3e3c
:0303e000029ef585
:0303e100029eaccd
:0303e200029e6414
:0303e300029e1b5c
:0303e400029dd2a5
:0303e500029d8aec
:0303e600029d4134
:0303e700029cf97c
:0303e800029cb0c4
:0303e900029c680b
:0303ea00029c2052
:0303eb00029bd89a
:0303ec00029b8fe2
:0303ed00029b4729
:0303ee00029aff71
:0303ef00029ab7b8
:0303f000029a6fff
:0303f100029a2746
:0303f2000299df8e
:0303f300029998d4
:0303f4000299501b
:0303f50002990862
:0303f6000298c0aa
:0303f700029879f0
:0303f80002983137
:0303f9000297ea7e
:0303fa000297a2c5
:0303fb0002975b0b
:0303fc0002971451
:0303fd000296cc99
:0303fe00029685df
:0303ff0002963e25
:030400000295f76b
:030401000295b0b1
:03040200029569f7
:030403000295223d
:030404000294db84
:03040500029494ca
:0304060002944d10
:0304070002940755
:030408000293c09c
:03040900029379e2
:03040a0002933327
:03040b000292ec6e
:03040c000292a6b3
:03040d0002925ff9
:03040e000292193e
:03040f000291d384
:0304100002918cca
:030411000291460f
:0304120002910054
:030413000290ba9a
:03041400029074df
:0304150002902e24
:03041600028fe86a
:03041700028fa2af
:03041800028f5df3
:03041900028f1738
:03041a00028ed17e
:03041b00028e8cc2
:03041c00028e4607
:03041d00028e004c
:03041e00028dbb91
:03041f00028d76d5
:03042000028d301a
:03042100028ceb5f
:03042200028ca6a3
:03042300028c61e7
:03042400028c1b2c
:03042500028bd671
:03042600028b91b5
:03042700028b4cf9
:03042800028b073d
:03042900028ac381
:03042a00028a7ec5
:03042b00028a3909
:03042c000289f44e
:03042d000289b091
:03042e0002896bd5
:03042f0002892718
:030430000288e25d
:0304310002889ea0
:0304320002885ae3
:0304330002881527
:030434000287d16b
:0304350002878dae
:03043600028749f1
:0304370002870534
:030438000286c178
:0304390002867dbb
:03043a00028639fe
:03043b000285f542
:03043c000285b185
:03043d0002856ec7
:03043e0002852a0a
:03043f000284e64e
:030440000284a390
:0304410002845fd3
:0304420002841c15
:030443000283d958
:030444000283959b
:03044500028352dd
:0304460002830f1f
:030447000282cc62
:03044800028289a4
:03044900028246e6
:03044a0002820328
:03044b000281c06b
:03044c0002817dad
:03044d0002813aef
:03044e000280f732
:03044f000280b573
:03045000028072b5
:0304510002802ff7
:03045200027fed39
:03045300027faa7b
:03045400027f68bc
:03045500027f26fd
:03045600027ee340
:03045700027ea181
:03045800027e5fc2
:03045900027e1d03
:03045a00027ddb45
:03045b00027d9986
:03045c00027d57c7
:03045d00027d1508
:03045e00027cd34a
:03045f00027c928a
:03046000027c50cb
:03046100027c0e0c
:03046200027bcd4d
:03046300027b8b8e
:03046400027b4ace
:03046500027b080f
:03046600027ac750
:03046700027a8690
:03046800027a44d1
:03046900027a0311
:03046a000279c252
:03046b0002798192
:03046c00027940d2
:03046d000278ff13
:03046e000278be53
:03046f0002787e92
:0304700002783dd2
:030471000277fc13
:030472000277bb53
:0304730002777b92
:0304740002773ad2
:030475000276fa12
:030476000276b952
:0304770002767991
:03047800027639d0
:030479000275f910
:03047a000275b850
:03047b000275788f
:03047c00027538ce
:03047d000274f80e
:03047e000274b84d
:03047f000274798b
:03048000027439ca
:030481000273f90a
:030482000273b949
:0304830002737a87
:0304840002733ac6
:030485000272fb05
:030486000272bb44
:0304870002727c82
:0304880002723cc1
:030489000271fd00
:03048a000271be3e
:03048b0002717f7c
:03048c00027140ba
:03048d00027101f8
:03048e000270c237
:03048f0002708375
:03049000027044b3
:03049100027005f1
:03049200026fc630
:03049300026f886d
:03049400026f49ab
:03049500026f0be8
:03049600026ecc27
:03049700026e8e64
:03049800026e4fa2
:03049900026e11df
:03049a00026dd31d
:03049b00026d955a
:03049c00026d5797
:03049d00026d18d5
:03049e00026cda13
:03049f00026c9d4f
:0304a000026c5f8c
:0304a100026c21c9
:0304a200026be307
:0304a300026ba544
:0304a400026b6880
:0304a500026b2abd
:0304a600026aedfa
:0304a700026aaf37
:0304a800026a7273
:0304a900026a34b0
:0304aa000269f7ed
:0304ab000269ba29
:0304ac0002697d65
:0304ad00026940a1
:0304ae00026903dd
:0304af000268c61a
:0304b00002688956
:0304b10002684c92
:0304b20002680fce
:0304b3000267d30a
:0304b40002679646
:0304b50002675982
:0304b60002671dbd
:0304b7000266e0fa
:0304b8000266a435
:0304b90002666870
:0304ba0002662bac
:0304bb000265efe8
:0304bc000265b323
:0304bd000265775e
:0304be0002653b99
:0304bf000264ffd5
:0304c0000264c310
:0304c1000264874b
:0304c20002644b86
:0304c30002640fc1
:0304c4000263d4fc
:0304c50002639837
:0304c60002635d71
:0304c700026321ac
:0304c8000262e6e7
:0304c9000262aa22
:0304ca0002626f5c
:0304cb0002623496
:0304cc000261f9d1
:0304cd000261be0b
:0304ce0002618246
:0304cf0002614780
:0304d00002610db9
:0304d1000260d2f4
:0304d2000260972e
:0304d30002605c68
:0304d400026022a1
:0304d500025fe7dc
:0304d600025fac16
:0304d700025f724f
:0304d800025f3789
:0304d900025efdc3
:0304da00025ec3fc
:0304db00025e8935
:0304dc00025e4e6f
:0304dd00025e14a8
:0304de00025ddae2
:0304df00025da01b
:0304e000025d6654
:0304e100025d2c8d
:0304e200025cf3c6
:0304e300025cb9ff
:0304e400025c7f38
:0304e500025c4670
:0304e600025c0ca9
:0304e700025bd3e2
:0304e800025b991b
:0304e900025b6053
:0304ea00025b278b
:0304eb00025aedc5
:0304ec00025ab4fd
:0304ed00025a7b35
:0304ee00025a426d
:0304ef00025a09a5
:0304f0000259d0de
:0304f10002599716
:0304f20002595f4d
:0304f30002592685
:0304f4000258edbe
:0304f5000258b5f5
:0304f60002587c2d
:0304f70002584464
:0304f80002580b9c
:0304f9000257d3d4
:0304fa0002579b0b
:0304fb0002576342
:0304fc0002572a7a
:0304fd000256f2b2
:0304fe000256bae9
:0304ff0002568220
:0305000002564a56
:030501000256138c
:030502000255dbc4
:030503000255a3fb
:0305040002556c31
:0305050002553468
:030506000254fca0
:030507000254c5d6
:0305080002548e0c
:0305090002545643
:03050a0002541f79
:03050b000253e8b0
:03050c000253b1e6
:03050d0002537a1c
:03050e0002534352
:03050f0002530c88
:030510000252d5bf
:0305110002529ef5
:030512000252682a
:0305130002523160
:030514000251fa97
:030515000251c4cc
:0305160002518d02
:0305170002515737
:030518000251216c
:030519000250eaa3
:03051a000250b4d8
:03051b0002507e0d
:03051c0002504842
:03051d0002501277
:03051e00024fdcad
:03051f00024fa6e2
:03052000024f7017
:03052100024f3a4c
:03052200024f0580
:03052300024ecfb6
:03052400024e9aea
:03052500024e641f
:03052600024e2f53
:03052700024df989
:03052800024dc4bd
:03052900024d8ff1
:03052a00024d5a25
:03052b00024d2559
:03052c00024cef8f
:03052d00024cbbc2
:03052e00024c86f6
:03052f00024c512a
:03053000024c1c5e
:03053100024be793
:03053200024bb3c6
:03053300024b7efa
:03053400024b4a2d
:03053500024b1561
:03053600024ae195
:03053700024aacc9
:03053800024a78fc
:03053900024a442f
:03053a00024a1062
:03053b000249dc96
:03053c000249a8c9
:03053d00024974fc
:03053e000249402f
:03053f0002490c62
:030540000248d995
:030541000248a5c8
:03054200024871fb
:0305430002483e2d
:0305440002480a60
:030545000247d793
:030546000247a4c5
:03054700024770f8
:0305480002473d2a
:0305490002470a5c
:03054a000246d78f
:03054b000246a4c1
:03054c00024671f3
:03054d0002463e25
:03054e0002460c56
:03054f000245d989
:030550000245a6bb
:03055100024574ec
:030552000245411e
:0305530002450f4f
:030554000244dc82
:030555000244aab3
:03055600024478e4
:0305570002444615
:0305580002441347
:030559000243e179
:03055a000243afaa
:03055b0002437ddb
:03055c0002434c0b
:03055d0002431a3c
:03055e000242e86e
:03055f000242b69f
:03056000024285cf
:0305610002425300
:0305620002422230
:030563000241f062
:030564000241bf92
:0305650002418ec2
:0305660002415df2
:0305670002412c22
:030568000240fb53
:030569000240ca83
:03056a00024099b3
:03056b00024068e3
:03056c0002403713
:03056d0002400643
:03056e00023fd673
:03056f00023fa5a3
:03057000023f75d2
:03057100023f4402
:03057200023f1431
:03057300023ee362
:03057400023eb391
:03057500023e83c0
:03057600023e53ef
:03057700023e231e
:03057800023df34e
:03057900023dc37d
:03057a00023d93ac
:03057b00023d63db
:03057c00023d3409
:03057d00023d0438
:03057e00023cd567
:03057f00023ca596
:03058000023c76c4
:03058100023c46f3
:03058200023c1721
:03058300023be850
:03058400023bb97e
:03058500023b8aac
:03058600023b5bda
:03058700023b2c08
:03058800023afd37
:03058900023ace65
:03058a00023a9f93
:03058b00023a71c0
:03058c00023a42ee
:03058d00023a131c
:03058e000239e54a
:03058f000239b777
:03059000023988a5
:0305910002395ad2
:0305920002392cff
:030593000238fe2d
:030594000238d05a
:030595000238a287
:03059600023874b4
:03059700023846e1
:030598000238180e
:030599000237ea3c
:03059a000237bd68
:03059b0002378f95
:03059c00023762c1
:03059d00023734ee
:03059e000237071a
:03059f000236d948
:0305a0000236ac74
:0305a10002367fa0
:0305a200023652cc
:0305a300023625f8
:0305a4000235f825
:0305a5000235cb51
:0305a60002359e7d
:0305a700023571a9
:0305a800023545d4
:0305a90002351800
:0305aa000234ec2c
:0305ab000234bf58
:0305ac0002349383
:0305ad00023466af
:0305ae0002343ada
:0305af0002340e05
:0305b0000233e231
:0305b1000233b65c
:0305b20002338a87
:0305b30002335eb2
:0305b400023332dd
:0305b50002330608
:0305b6000232db33
:0305b7000232af5e
:0305b80002328389
:0305b900023258b3
:0305ba0002322cde
:0305bb0002320108
:0305bc000231d633
:0305bd000231aa5e
:0305be0002317f88
:0305bf00023154b2
:0305c000023129dc
:0305c1000230fe07
:0305c2000230d331
:0305c3000230a95a
:0305c40002307e84
:0305c500023053ae
:0305c600023029d7
:0305c700022ffe02
:0305c800022fd42b
:0305c900022fa955
:0305ca00022f7f7e
:0305cb00022f55a7
:0305cc00022f2ad1
:0305cd00022f00fa
:0305ce00022ed624
:0305cf00022eac4d
:0305d000022e8276
:0305d100022e599e
:0305d200022e2fc7
:0305d300022e05f0
:0305d400022ddc19
:0305d500022db242
:0305d600022d896a
:0305d700022d5f93
:0305d800022d36bb
:0305d900022d0de3
:0305da00022ce30d
:0305db00022cba35
:0305dc00022c915d
:0305dd00022c6885
:0305de00022c3fad
:0305df00022c16d5
:0305e000022beefd
:0305e100022bc525
:0305e200022b9c4d
:0305e300022b7474
:0305e400022b4b9c
:0305e500022b23c3
:0305e600022afaec
:0305e700022ad213
:0305e800022aaa3a
:0305e900022a8261
:0305ea00022a5a88
:0305eb00022a32af
:0305ec00022a0ad6
:0305ed000229e2fe
:0305ee000229ba25
:0305ef000229924c
:0305f00002296b72
:0305f10002294399
:0305f20002291cbf
:0305f3000228f4e7
:0305f4000228cd0d
:0305f5000228a633
:0305f60002287e5a
:0305f70002285780
:0305f800022830a6
:0305f900022809cc
:0305fa000227e2f3
:0305fb000227bb19
:0305fc000227953e
:0305fd0002276e64
:0305fe000227478a
:0305ff00022721af
:030600000226fad5
:030601000226d4fa
:030602000226ad20
:0306030002268745
:030604000226616a
:0306050002263b8f
:03060600022615b4
:030607000225efda
:030608000225c9ff
:030609000225a324
:03060a0002257d49
:03060b000225576e
:03060c0002253292
:03060d0002250cb7
:03060e000224e7dc
:03060f000224c101
:0306100002249c25
:030611000224764a
:030612000224516e
:0306130002242c92
:03061400022407b6
:030615000223e2db
:030616000223bdff
:0306170002239823
:0306180002237347
:0306190002234f6a
:03061a0002232a8e
:03061b00022306b1
:03061c000222e1d6
:03061d000222bdf9
:03061e000222981d
:03061f0002227440
:0306200002225063
:0306210002222c86
:03062200022207aa
:030623000221e3ce
:030624000221c0f0
:0306250002219c13
:0306260002217836
:0306270002215459
:030628000221317b
:0306290002210d9e
:03062a000220e9c2
:03062b000220c6e4
:03062c000220a306
:03062d0002207f29
:03062e0002205c4b
:03062f000220396d
:030630000220168f
:03063100021ff3b2
:03063200021fd0d4
:03063300021fadf6
:03063400021f8b17
:03063500021f6839
:03063600021f455b
:03063700021f237c
:03063800021f009e
:03063900021edec0
:03063a00021ebbe2
:03063b00021e9903
:03063c00021e7724
:03063d00021e5545
:03063e00021e3366
:03063f00021e1187
:03064000021defa9
:03064100021dcdca
:03064200021dabeb
:03064300021d8a0b
:03064400021d682c
:03064500021d464d
:03064600021d256d
:03064700021d048d
:03064800021ce2af
:03064900021cc1cf
:03064a00021ca0ef
:03064b00021c7f0f
:03064c00021c5e2f
:03064d00021c3d4f
:03064e00021c1c6f
:03064f00021bfb90
:03065000021bdab0
:03065100021bbacf
:03065200021b99ef
:03065300021b790e
:03065400021b582e
:03065500021b384d
:03065600021b176d
:03065700021af78d
:03065800021ad7ac
:03065900021ab7cb
:03065a00021a97ea
:03065b00021a7709
:03065c00021a5728
:03065d00021a3747
:03065e00021a1865
:03065f000219f885
:030660000219d8a4
:030661000219b9c2
:03066200021999e1
:0306630002197aff
:0306640002195b1d
:0306650002193c3b
:0306660002191d59
:030667000218fd79
:030668000218de97
:030669000218c0b4
:03066a000218a1d2
:03066b00021882f0
:03066c000218630e
:03066d000218452b
:03066e0002182649
:03066f0002180866
:030670000217e985
:030671000217cba2
:030672000217adbf
:0306730002178edd
:03067400021770fa
:0306750002175217
:0306760002173434
:0306770002171750
:030678000216f96e
:030679000216db8b
:03067a000216bda8
:03067b000216a0c4
:03067c00021682e1
:03067d00021665fd
:03067e000216471a
:03067f0002162a36
:0306800002160d52
:030681000215f06f
:030682000215d38b
:030683000215b6a7
:03068400021599c3
:0306850002157cdf
:0306860002155ffb
:0306870002154217
:0306880002152632
:030689000215094e
:03068a000214ed6a
:03068b000214d086
:03068c000214b4a1
:03068d00021498bc
:03068e0002147cd7
:03068f0002145ff3
:030690000214430e
:0306910002142729
:0306920002140c43
:030693000213f05f
:030694000213d47a
:030695000213b895
:0306960002139daf
:03069700021381ca
:03069800021366e4
:0306990002134aff
:03069a0002132f19
:03069b0002131433
:03069c000212f94e
:03069d000212de68
:03069e000212c382
:03069f000212a89c
:0306a00002128db6
:0306a100021272d0
:0306a200021257ea
:0306a30002123d03
:0306a4000212221d
:0306a50002120836
:0306a6000211ed51
:0306a7000211d36a
:0306a8000211b983
:0306a90002119f9c
:0306aa00021184b6
:0306ab0002116acf
:0306ac00021151e7
:0306ad0002113700
:0306ae0002111d19
:0306af0002110332
:0306b0000210e94c
:0306b1000210d064
:0306b2000210b67d
:0306b30002109d95
:0306b400021084ad
:0306b50002106ac6
:0306b600021051de
:0306b700021038f6
:0306b80002101f0e
:0306b90002100626
:0306ba00020fed3f
:0306bb00020fd457
:0306bc00020fbb6f
:0306bd00020fa386
:0306be00020f8a9e
:0306bf00020f71b6
:0306c000020f59cd
:0306c100020f41e4
:0306c200020f28fc
:0306c300020f1013
:0306c400020ef82b
:0306c500020ee042
:0306c600020ec859
:0306c700020eb070
:0306c800020e9887
:0306c900020e809e
:0306ca00020e69b4
:0306cb00020e51cb
:0306cc00020e39e2
:0306cd00020e22f8
:0306ce00020e0a0f
:0306cf00020df326
:0306d000020ddc3c
:0306d100020dc552
:0306d200020dad69
:0306d300020d967f
:0306d400020d7f95
:0306d500020d69aa
:0306d600020d52c0
:0306d700020d3bd6
:0306d800020d24ec
:0306d900020d0e01
:0306da00020cf718
:0306db00020ce12d
:0306dc00020cca43
:0306dd00020cb458
:0306de00020c9e6d
:0306df00020c8882
:0306e000020c7297
:0306e100020c5cac
:0306e200020c46c1
:0306e300020c30d6
:0306e400020c1aeb
:0306e500020c05ff
:0306e600020bef15
:0306e700020bd92a
:0306e800020bc43e
:0306e900020baf52
:0306ea00020b9967
:0306eb00020b847b
:0306ec00020b6f8f
:0306ed00020b5aa3
:0306ee00020b45b7
:0306ef00020b30cb
:0306f000020b1bdf
:0306f100020b06f3
:0306f200020af108
:0306f300020add1b
:0306f400020ac82f
:0306f500020ab442
:0306f600020a9f56
:0306f700020a8b69
:0306f800020a777c
:0306f900020a638f
:0306fa00020a4fa2
:0306fb00020a3ab6
:0306fc00020a27c8
:0306fd00020a13db
:0306fe000209ffef
:0306ff000209eb02
:030700000209d714
:030701000209c426
:030702000209b039
:0307030002099d4b
:0307040002098a5d
:0307050002097670
:0307060002096382
:0307070002095094
:0307080002093da6
:0307090002092ab8
:03070a00020917ca
:03070b00020904dc
:03070c000208f2ee
:03070d000208df00
:03070e000208cc12
:03070f000208ba23
:030710000208a735
:0307110002089546
:0307120002088357
:0307130002087168
:0307140002085e7a
:0307150002084c8b
:0307160002083a9c
:03071700020828ad
:03071800020817bd
:03071900020805ce
:03071a000207f3e0
:03071b000207e2f0
:03071c000207d001
:03071d000207bf11
:03071e000207ad22
:03071f0002079c32
:0307200002078b42
:0307210002077a52
:0307220002076863
:0307230002075773
:0307240002074782
:0307250002073692
:03072600020725a2
:03072700020714b2
:03072800020704c1
:030729000206f3d2
:03072a000206e3e1
:03072b000206d2f1
:03072c000206c200
:03072d000206b20f
:03072e000206a21e
:03072f000206912e
:030730000206813d
:030731000206714c
:030732000206625a
:0307330002065269
:0307340002064278
:0307350002063386
:0307360002062395
:03073700020613a4
:03073800020604b2
:030739000205f5c1
:03073a000205e6cf
:03073b000205d6de
:03073c000205c7ec
:03073d000205b8fa
:03073e000205a908
:03073f0002059a16
:0307400002058c23
:0307410002057d31
:0307420002056e3f
:030743000205604c
:030744000205515a
:0307450002054367
:0307460002053574
:0307470002052682
:030748000205188f
:0307490002050a9c
:03074a000204fcaa
:03074b000204eeb7
:03074c000204e0c4
:03074d000204d2d1
:03074e000204c5dd
:03074f000204b7ea
:030750000204a9f7
:0307510002049c03
:0307520002048e10
:030753000204811c
:0307540002047428
:0307550002046734
:0307560002045a40
:0307570002044d4c
:0307580002044058
:0307590002043364
:03075a0002042670
:03075b000204197c
:03075c0002040d87
:03075d0002040093
:03075e000203f3a0
:03075f000203e7ab
:030760000203dbb6
:030761000203cec2
:030762000203c2cd
:030763000203b6d8
:030764000203aae3
:0307650002039eee
:03076600020392f9
:0307670002038604
:0307680002037b0e
:0307690002036f19
:03076a0002036324
:03076b000203582e
:03076c0002034d38
:03076d0002034143
:03076e000203364d
:03076f0002032b57
:0307700002032061
:030771000203156b
:0307720002030a75
:030773000202ff80
:030774000202f48a
:030775000202e994
:030776000202df9d
:030777000202d4a7
:030778000202c9b1
:030779000202bfba
:03077a000202b5c3
:03077b000202aacd
:03077c000202a0d6
:03077d00020296df
:03077e0002028ce8
:03077f00020282f1
:03078000020278fa
:0307810002026e03
:030782000202650b
:0307830002025b14
:030784000202511d
:0307850002024825
:0307860002023e2e
:0307870002023536
:0307880002022c3e
:0307890002022346
:03078a000202194f
:03078b0002021057
:03078c000202075f
:03078d000201ff67
:03078e000201f66f
:03078f000201ed77
:030790000201e47f
:030791000201dc86
:030792000201d38e
:030793000201cb95
:030794000201c29d
:030795000201baa4
:030796000201b2ab
:030797000201aab2
:030798000201a2b9
:0307990002019ac0
:03079a00020192c7
:03079b0002018ace
:03079c00020182d5
:03079d0002017bdb
:03079e00020173e2
:03079f0002016ce8
:0307a000020164ef
:0307a10002015df5
:0307a200020156fb
:0307a30002014e02
:0307a40002014708
:0307a5000201400e
:0307a60002013914
:0307a7000201321a
:0307a80002012b20
:0307a90002012525
:0307aa0002011e2b
:0307ab0002011731
:0307ac0002011136
:0307ad0002010b3b
:0307ae0002010441
:0307af000200fe47
:0307b0000200f84c
:0307b1000200f251
:0307b2000200eb57
:0307b3000200e65b
:0307b4000200e060
:0307b5000200da65
:0307b6000200d46a
:0307b7000200ce6f
:0307b8000200c973
:0307b9000200c378
:0307ba000200be7c
:0307bb000200b980
:0307bc000200b385
:0307bd000200ae89
:0307be000200a98d
:0307bf000200a491
:0307c00002009f95
:0307c10002009a99
:0307c2000200959d
:0307c300020090a1
:0307c40002008ca4
:0307c500020087a8
:0307c600020083ab
:0307c70002007eaf
:0307c80002007ab2
:0307c900020076b5
:0307ca00020071b9
:0307cb0002006dbc
:0307cc00020069bf
:0307cd00020065c2
:0307ce00020061c5
:0307cf0002005ec7
:0307d00002005aca
:0307d100020056cd
:0307d200020053cf
:0307d30002004fd2
:0307d40002004cd4
:0307d500020048d7
:0307d600020045d9
:0307d700020042db
:0307d80002003fdd
:0307d90002003cdf
:0307da00020039e1
:0307db00020036e3
:0307dc00020033e5
:0307dd00020030e7
:0307de0002002ee8
:0307df0002002bea
:0307e000020028ec
:0307e100020026ed
:0307e200020024ee
:0307e300020021f0
:0307e40002001ff1
:0307e50002001df2
:0307e60002001bf3
:0307e700020019f4
:0307e800020017f5
:0307e900020015f6
:0307ea00020014f6
:0307eb00020012f7
:0307ec00020010f8
:0307ed0002000ff8
:0307ee0002000df9
:0307ef0002000cf9
:0307f00002000bf9
:0307f10002000af9
:0307f200020009f9
:0307f300020008f9
:0307f400020007f9
:0307f500020006f9
:0307f600020005f9
:0307f700020004f9
:0307f800020003f9
:0307f900020003f8
:0307fa00020002f8
:0307fb00020002f7
:0307fc00020002f6
:0307fd00020001f6
:0307fe00020001f5
:0307ff00020001f4
:03080000000000f5
:00000001FF
