:0300000001fffffe
:0300010001fffffd
:0300020001fffffc
:0300030001fffffb
:0300040001fffefb
:0300050001fffefa
:0300060001fffef9
:0300070001fffdf9
:0300080001fffdf8
:0300090001fffcf8
:03000a0001fffbf8
:03000b0001fffaf8
:03000c0001fff9f8
:03000d0001fff8f8
:03000e0001fff7f8
:03000f0001fff6f8
:0300100001fff5f8
:0300110001fff4f8
:0300120001fff3f8
:0300130001fff1f9
:0300140001fff0f9
:0300150001ffeefa
:0300160001ffecfb
:0300170001ffebfb
:0300180001ffe9fc
:0300190001ffe7fd
:03001a0001ffe5fe
:03001b0001ffe3ff
:03001c0001ffe100
:03001d0001ffdf01
:03001e0001ffdc03
:03001f0001ffda04
:0300200001ffd805
:0300210001ffd507
:0300220001ffd209
:0300230001ffd00a
:0300240001ffcd0c
:0300250001ffca0e
:0300260001ffc710
:0300270001ffc412
:0300280001ffc114
:0300290001ffbe16
:03002a0001ffbb18
:03002b0001ffb81a
:03002c0001ffb41d
:03002d0001ffb11f
:03002e0001ffad22
:03002f0001ffaa24
:0300300001ffa627
:0300310001ffa22a
:0300320001ff9f2c
:0300330001ff9b2f
:0300340001ff9732
:0300350001ff9335
:0300360001ff8f38
:0300370001ff8a3c
:0300380001ff863f
:0300390001ff8242
:03003a0001ff7d46
:03003b0001ff7949
:03003c0001ff744d
:03003d0001ff7050
:03003e0001ff6b54
:03003f0001ff6658
:0300400001ff615c
:0300410001ff5c60
:0300420001ff5764
:0300430001ff5268
:0300440001ff4d6c
:0300450001ff4771
:0300460001ff4275
:0300470001ff3d79
:0300480001ff377e
:0300490001ff3282
:03004a0001ff2c87
:03004b0001ff268c
:03004c0001ff2091
:03004d0001ff1a96
:03004e0001ff159a
:03004f0001ff0ea0
:0300500001ff08a5
:0300510001ff02aa
:0300520001fefcb0
:0300530001fef5b6
:0300540001feefbb
:0300550001fee9c0
:0300560001fee2c6
:0300570001fedbcc
:0300580001fed5d1
:0300590001feced7
:03005a0001fec7dd
:03005b0001fec0e3
:03005c0001feb9e9
:03005d0001feb2ef
:03005e0001feaaf6
:03005f0001fea3fc
:0300600001fe9c02
:0300610001fe9409
:0300620001fe8d0f
:0300630001fe8516
:0300640001fe7e1c
:0300650001fe7623
:0300660001fe6e2a
:0300670001fe6631
:0300680001fe5e38
:0300690001fe563f
:03006a0001fe4e46
:03006b0001fe464d
:03006c0001fe3e54
:03006d0001fe355c
:03006e0001fe2d63
:03006f0001fe246b
:0300700001fe1c72
:0300710001fe137a
:0300720001fe0a82
:0300730001fe018a
:0300740001fdf992
:0300750001fdf09a
:0300760001fde7a2
:0300770001fdddab
:0300780001fdd4b3
:0300790001fdcbbb
:03007a0001fdc2c3
:03007b0001fdb8cc
:03007c0001fdafd4
:03007d0001fda5dd
:03007e0001fd9be6
:03007f0001fd92ee
:0300800001fd88f7
:0300810001fd7e00
:0300820001fd7409
:0300830001fd6a12
:0300840001fd601b
:0300850001fd5624
:0300860001fd4b2e
:0300870001fd4137
:0300880001fd3740
:0300890001fd2c4a
:03008a0001fd2154
:03008b0001fd175d
:03008c0001fd0c67
:03008d0001fd0171
:03008e0001fcf67c
:03008f0001fceb86
:0300900001fce090
:0300910001fcd59a
:0300920001fccaa4
:0300930001fcbfae
:0300940001fcb3b9
:0300950001fca8c3
:0300960001fc9dcd
:0300970001fc91d8
:0300980001fc85e3
:0300990001fc7aed
:03009a0001fc6ef8
:03009b0001fc6203
:03009c0001fc560e
:03009d0001fc4a19
:03009e0001fc3e24
:03009f0001fc322f
:0300a00001fc253b
:0300a10001fc1946
:0300a20001fc0d51
:0300a30001fc005d
:0300a40001fbf36a
:0300a50001fbe775
:0300a60001fbda81
:0300a70001fbcd8d
:0300a80001fbc099
:0300a90001fbb3a5
:0300aa0001fba6b1
:0300ab0001fb99bd
:0300ac0001fb8cc9
:0300ad0001fb7fd5
:0300ae0001fb72e1
:0300af0001fb64ee
:0300b00001fb57fa
:0300b10001fb4907
:0300b20001fb3b14
:0300b30001fb2e20
:0300b40001fb202d
:0300b50001fb123a
:0300b60001fb0447
:0300b70001faf655
:0300b80001fae862
:0300b90001fada6f
:0300ba0001facb7d
:0300bb0001fabd8a
:0300bc0001faaf97
:0300bd0001faa0a5
:0300be0001fa92b2
:0300bf0001fa83c0
:0300c00001fa74ce
:0300c10001fa66db
:0300c20001fa57e9
:0300c30001fa48f7
:0300c40001fa3905
:0300c50001fa2a13
:0300c60001fa1a22
:0300c70001fa0b30
:0300c80001f9fc3f
:0300c90001f9ed4d
:0300ca0001f9dd5c
:0300cb0001f9cd6b
:0300cc0001f9be79
:0300cd0001f9ae88
:0300ce0001f99e97
:0300cf0001f98fa5
:0300d00001f97fb4
:0300d10001f96fc3
:0300d20001f95ed3
:0300d30001f94ee2
:0300d40001f93ef1
:0300d50001f92e00
:0300d60001f91d10
:0300d70001f90d1f
:0300d80001f8fc30
:0300d90001f8ec3f
:0300da0001f8db4f
:0300db0001f8ca5f
:0300dc0001f8b96f
:0300dd0001f8a97e
:0300de0001f8988e
:0300df0001f8869f
:0300e00001f875af
:0300e10001f864bf
:0300e20001f853cf
:0300e30001f841e0
:0300e40001f830f0
:0300e50001f81e01
:0300e60001f80d11
:0300e70001f7fb23
:0300e80001f7e934
:0300e90001f7d844
:0300ea0001f7c655
:0300eb0001f7b466
:0300ec0001f7a277
:0300ed0001f78f89
:0300ee0001f77d9a
:0300ef0001f76bab
:0300f00001f759bc
:0300f10001f746ce
:0300f20001f734df
:0300f30001f721f1
:0300f40001f70e03
:0300f50001f6fc15
:0300f60001f6e927
:0300f70001f6d639
:0300f80001f6c34b
:0300f90001f6b05d
:0300fa0001f69d6f
:0300fb0001f68a81
:0300fc0001f67694
:0300fd0001f663a6
:0300fe0001f650b8
:0300ff0001f63ccb
:0301000001f629dc
:0301010001f615ef
:0301020001f60102
:0301030001f5ed16
:0301040001f5d929
:0301050001f5c63b
:0301060001f5b14f
:0301070001f59d62
:0301080001f58975
:0301090001f57588
:03010a0001f5619b
:03010b0001f54caf
:03010c0001f538c2
:03010d0001f523d6
:03010e0001f50fe9
:03010f0001f4fafe
:0301100001f4e512
:0301110001f4d026
:0301120001f4bb3a
:0301130001f4a64e
:0301140001f49162
:0301150001f47c76
:0301160001f4678a
:0301170001f4519f
:0301180001f43cb3
:0301190001f427c7
:03011a0001f411dc
:03011b0001f3fbf2
:03011c0001f3e606
:03011d0001f3d01b
:03011e0001f3ba30
:03011f0001f3a445
:0301200001f38e5a
:0301210001f3786f
:0301220001f36284
:0301230001f34c99
:0301240001f336ae
:0301250001f31fc4
:0301260001f309d9
:0301270001f2f2f0
:0301280001f2dc05
:0301290001f2c51b
:03012a0001f2ae31
:03012b0001f29747
:03012c0001f2815c
:03012d0001f26a72
:03012e0001f25388
:03012f0001f23b9f
:0301300001f224b5
:0301310001f20dcb
:0301320001f1f6e2
:0301330001f1def9
:0301340001f1c70f
:0301350001f1af26
:0301360001f1973d
:0301370001f18053
:0301380001f1686a
:0301390001f15081
:03013a0001f13898
:03013b0001f120af
:03013c0001f108c6
:03013d0001f0f0de
:03013e0001f0d8f5
:03013f0001f0bf0d
:0301400001f0a724
:0301410001f08f3b
:0301420001f07653
:0301430001f05d6b
:0301440001f04582
:0301450001f02c9a
:0301460001f013b2
:0301470001effacb
:0301480001efe1e3
:0301490001efc8fb
:03014a0001efaf13
:03014b0001ef962b
:03014c0001ef7c44
:03014d0001ef635c
:03014e0001ef4a74
:03014f0001ef308d
:0301500001ef17a5
:0301510001eefdbf
:0301520001eee3d8
:0301530001eec9f1
:0301540001eeaf0a
:0301550001ee9622
:0301560001ee7c3b
:0301570001ee6155
:0301580001ee476e
:0301590001ee2d87
:03015a0001ee13a0
:03015b0001edf8bb
:03015c0001edded4
:03015d0001edc3ee
:03015e0001eda907
:03015f0001ed8e21
:0301600001ed733b
:0301610001ed5855
:0301620001ed3d6f
:0301630001ed2289
:0301640001ed07a3
:0301650001ececbe
:0301660001ecd1d8
:0301670001ecb6f2
:0301680001ec9a0d
:0301690001ec7f27
:03016a0001ec6342
:03016b0001ec485c
:03016c0001ec2c77
:03016d0001ec1092
:03016e0001ebf4ae
:03016f0001ebd9c8
:0301700001ebbde3
:0301710001eba1fe
:0301720001eb841a
:0301730001eb6835
:0301740001eb4c50
:0301750001eb306b
:0301760001eb1387
:0301770001eaf7a3
:0301780001eadabf
:0301790001eabeda
:03017a0001eaa1f6
:03017b0001ea8412
:03017c0001ea672e
:03017d0001ea4a4a
:03017e0001ea2d66
:03017f0001ea1082
:0301800001e9f39f
:0301810001e9d6bb
:0301820001e9b9d7
:0301830001e99bf4
:0301840001e97e10
:0301850001e9602d
:0301860001e94349
:0301870001e92566
:0301880001e90783
:0301890001e8e9a1
:03018a0001e8ccbd
:03018b0001e8aeda
:03018c0001e890f7
:03018d0001e87214
:03018e0001e85332
:03018f0001e8354f
:0301900001e8176c
:0301910001e7f88b
:0301920001e7daa8
:0301930001e7bbc6
:0301940001e79de3
:0301950001e77e01
:0301960001e75f1f
:0301970001e7403d
:0301980001e7225a
:0301990001e70378
:03019a0001e6e398
:03019b0001e6c4b6
:03019c0001e6a5d4
:03019d0001e686f2
:03019e0001e66710
:03019f0001e6472f
:0301a00001e6284d
:0301a10001e6086c
:0301a20001e5e88c
:0301a30001e5c9aa
:0301a40001e5a9c9
:0301a50001e589e8
:0301a60001e56907
:0301a70001e54926
:0301a80001e52945
:0301a90001e50964
:0301aa0001e4e984
:0301ab0001e4c8a4
:0301ac0001e4a8c3
:0301ad0001e487e3
:0301ae0001e46702
:0301af0001e44622
:0301b00001e42641
:0301b10001e40561
:0301b20001e3e482
:0301b30001e3c3a2
:0301b40001e3a2c2
:0301b50001e381e2
:0301b60001e36002
:0301b70001e33f22
:0301b80001e31e42
:0301b90001e2fc64
:0301ba0001e2db84
:0301bb0001e2baa4
:0301bc0001e298c5
:0301bd0001e276e6
:0301be0001e25506
:0301bf0001e23327
:0301c00001e21148
:0301c10001e1ef6a
:0301c20001e1cd8b
:0301c30001e1abac
:0301c40001e189cd
:0301c50001e167ee
:0301c60001e1450f
:0301c70001e12231
:0301c80001e10052
:0301c90001e0dd75
:0301ca0001e0bb96
:0301cb0001e098b8
:0301cc0001e075da
:0301cd0001e053fb
:0301ce0001e0301d
:0301cf0001e00d3f
:0301d00001dfea62
:0301d10001dfc784
:0301d20001dfa4a6
:0301d30001df81c8
:0301d40001df5deb
:0301d50001df3a0d
:0301d60001df172f
:0301d70001def353
:0301d80001decf76
:0301d90001deac98
:0301da0001de88bb
:0301db0001de64de
:0301dc0001de4001
:0301dd0001de1d23
:0301de0001ddf947
:0301df0001ddd46b
:0301e00001ddb08e
:0301e10001dd8cb1
:0301e20001dd68d4
:0301e30001dd43f8
:0301e40001dd1f1b
:0301e50001dcfa40
:0301e60001dcd663
:0301e70001dcb187
:0301e80001dc8daa
:0301e90001dc68ce
:0301ea0001dc43f2
:0301eb0001dc1e16
:0301ec0001dbf93b
:0301ed0001dbd45f
:0301ee0001dbaf83
:0301ef0001db8aa7
:0301f00001db64cc
:0301f10001db3ff0
:0301f20001db1915
:0301f30001daf43a
:0301f40001dace5f
:0301f50001daa983
:0301f60001da83a8
:0301f70001da5dcd
:0301f80001da37f2
:0301f90001da1117
:0301fa0001d9eb3d
:0301fb0001d9c562
:0301fc0001d99f87
:0301fd0001d979ac
:0301fe0001d953d1
:0301ff0001d92cf7
:0302000001d9061b
:0302010001d8df42
:0302020001d8b967
:0302030001d8928d
:0302040001d86bb3
:0302050001d845d8
:0302060001d81efe
:0302070001d7f725
:0302080001d7d04b
:0302090001d7a971
:03020a0001d78297
:03020b0001d75abe
:03020c0001d733e4
:03020d0001d70c0a
:03020e0001d6e432
:03020f0001d6bd58
:0302100001d6957f
:0302110001d66ea5
:0302120001d646cc
:0302130001d61ef3
:0302140001d5f61b
:0302150001d5ce42
:0302160001d5a669
:0302170001d57e90
:0302180001d556b7
:0302190001d52ede
:03021a0001d50605
:03021b0001d4dd2e
:03021c0001d4b555
:03021d0001d48c7d
:03021e0001d464a4
:03021f0001d43bcc
:0302200001d412f4
:0302210001d3ea1c
:0302220001d3c144
:0302230001d3986c
:0302240001d36f94
:0302250001d346bc
:0302260001d31de4
:0302270001d2f30e
:0302280001d2ca36
:0302290001d2a15e
:03022a0001d27787
:03022b0001d24eaf
:03022c0001d224d8
:03022d0001d1fb01
:03022e0001d1d12a
:03022f0001d1a753
:0302300001d17e7b
:0302310001d154a4
:0302320001d12acd
:0302330001d100f6
:0302340001d0d620
:0302350001d0ab4a
:0302360001d08173
:0302370001d0579c
:0302380001d02cc6
:0302390001d002ef
:03023a0001cfd71a
:03023b0001cfad43
:03023c0001cf826d
:03023d0001cf5797
:03023e0001cf2dc0
:03023f0001cf02ea
:0302400001ced715
:0302410001ceac3f
:0302420001ce8169
:0302430001ce5693
:0302440001ce2abe
:0302450001cdffe9
:0302460001cdd413
:0302470001cda83e
:0302480001cd7d68
:0302490001cd5193
:03024a0001cd25be
:03024b0001ccfae9
:03024c0001ccce14
:03024d0001cca23f
:03024e0001cc766a
:03024f0001cc4a95
:0302500001cc1ec0
:0302510001cbf2ec
:0302520001cbc617
:0302530001cb9a42
:0302540001cb6d6e
:0302550001cb4199
:0302560001cb14c5
:0302570001cae8f1
:0302580001cabb1d
:0302590001ca8f48
:03025a0001ca6274
:03025b0001ca35a0
:03025c0001ca08cc
:03025d0001c9dbf9
:03025e0001c9ae25
:03025f0001c98151
:0302600001c9547d
:0302610001c927a9
:0302620001c8f9d7
:0302630001c8cc03
:0302640001c89e30
:0302650001c8715c
:0302660001c84389
:0302670001c816b5
:0302680001c7e8e3
:0302690001c7ba10
:03026a0001c78c3d
:03026b0001c75e6a
:03026c0001c73097
:03026d0001c702c4
:03026e0001c6d4f2
:03026f0001c6a61f
:0302700001c6784c
:0302710001c6497a
:0302720001c61ba7
:0302730001c5edd5
:0302740001c5be03
:0302750001c58f31
:0302760001c5615e
:0302770001c5328c
:0302780001c503ba
:0302790001c4d4e9
:03027a0001c4a517
:03027b0001c47645
:03027c0001c44773
:03027d0001c418a1
:03027e0001c3e9d0
:03027f0001c3bafe
:0302800001c38a2d
:0302810001c35b5b
:0302820001c32b8a
:0302830001c2fcb9
:0302840001c2cce8
:0302850001c29d16
:0302860001c26d45
:0302870001c23d74
:0302880001c20da3
:0302890001c1ddd3
:03028a0001c1ad02
:03028b0001c17d31
:03028c0001c14d60
:03028d0001c11d8f
:03028e0001c0ecc0
:03028f0001c0bcef
:0302900001c08b1f
:0302910001c05b4e
:0302920001c02a7e
:0302930001bffaae
:0302940001bfc9de
:0302950001bf980e
:0302960001bf673e
:0302970001bf366e
:0302980001bf059e
:0302990001bed4cf
:03029a0001bea3ff
:03029b0001be722f
:03029c0001be415f
:03029d0001be108f
:03029e0001bddec1
:03029f0001bdadf1
:0302a00001bd7b22
:0302a10001bd4a52
:0302a20001bd1883
:0302a30001bce6b5
:0302a40001bcb4e6
:0302a50001bc8316
:0302a60001bc5147
:0302a70001bc1f78
:0302a80001bbedaa
:0302a90001bbbadc
:0302aa0001bb880d
:0302ab0001bb563e
:0302ac0001bb246f
:0302ad0001baf1a2
:0302ae0001babfd3
:0302af0001ba8c05
:0302b00001ba5a36
:0302b10001ba2768
:0302b20001b9f49b
:0302b30001b9c2cc
:0302b40001b98ffe
:0302b50001b95c30
:0302b60001b92962
:0302b70001b8f695
:0302b80001b8c3c7
:0302b90001b890f9
:0302ba0001b85c2c
:0302bb0001b8295e
:0302bc0001b7f691
:0302bd0001b7c2c4
:0302be0001b78ff6
:0302bf0001b75b29
:0302c00001b7275c
:0302c10001b6f48f
:0302c20001b6c0c2
:0302c30001b68cf5
:0302c40001b65828
:0302c50001b6245b
:0302c60001b5f08f
:0302c70001b5bcc2
:0302c80001b588f5
:0302c90001b55428
:0302ca0001b51f5c
:0302cb0001b4eb90
:0302cc0001b4b6c4
:0302cd0001b482f7
:0302ce0001b44d2b
:0302cf0001b4195e
:0302d00001b3e493
:0302d10001b3afc7
:0302d20001b37afb
:0302d30001b3452f
:0302d40001b31162
:0302d50001b2db98
:0302d60001b2a6cc
:0302d70001b27100
:0302d80001b23c34
:0302d90001b20768
:0302da0001b1d19e
:0302db0001b19cd2
:0302dc0001b16607
:0302dd0001b1313b
:0302de0001b0fb71
:0302df0001b0c6a5
:0302e00001b090da
:0302e10001b05a0f
:0302e20001b02444
:0302e30001afee7a
:0302e40001afb8af
:0302e50001af82e4
:0302e60001af4c19
:0302e70001af164e
:0302e80001aedf85
:0302e90001aea9ba
:0302ea0001ae73ef
:0302eb0001ae3c25
:0302ec0001ae065a
:0302ed0001adcf91
:0302ee0001ad98c7
:0302ef0001ad62fc
:0302f00001ad2b32
:0302f10001acf469
:0302f20001acbd9f
:0302f30001ac86d5
:0302f40001ac4f0b
:0302f50001ac1841
:0302f60001abe178
:0302f70001abaaae
:0302f80001ab72e5
:0302f90001ab3b1b
:0302fa0001ab0451
:0302fb0001aacc89
:0302fc0001aa94c0
:0302fd0001aa5df6
:0302fe0001aa252d
:0302ff0001a9ed65
:0303000001a9b69a
:0303010001a97ed1
:0303020001a94608
:0303030001a90e3f
:0303040001a8d677
:0303050001a89daf
:0303060001a865e6
:0303070001a82d1d
:0303080001a7f555
:0303090001a7bc8d
:03030a0001a784c4
:03030b0001a74bfc
:03030c0001a71333
:03030d0001a6da6c
:03030e0001a6a1a4
:03030f0001a669db
:0303100001a63013
:0303110001a5f74c
:0303120001a5be84
:0303130001a585bc
:0303140001a54cf4
:0303150001a5132c
:0303160001a4d966
:0303170001a4a09e
:0303180001a467d6
:0303190001a42d0f
:03031a0001a3f448
:03031b0001a3ba81
:03031c0001a381b9
:03031d0001a347f2
:03031e0001a30d2b
:03031f0001a2d464
:0303200001a29a9d
:0303210001a260d6
:0303220001a2260f
:0303230001a1ec49
:0303240001a1b282
:0303250001a177bc
:0303260001a13df5
:0303270001a1032e
:0303280001a0c968
:0303290001a08ea2
:03032a0001a054db
:03032b0001a01915
:03032c00019fde50
:03032d00019fa489
:03032e00019f69c3
:03032f00019f2efd
:03033000019ef338
:03033100019eb971
:03033200019e7eab
:03033300019e42e6
:03033400019e0720
:03033500019dcc5b
:03033600019d9195
:03033700019d56cf
:03033800019d1a0a
:03033900019cdf45
:03033a00019ca380
:03033b00019c68ba
:03033c00019c2cf5
:03033d00019bf130
:03033e00019bb56b
:03033f00019b79a6
:03034000019b3de1
:03034100019b011c
:03034200019ac558
:03034300019a8993
:03034400019a4dce
:03034500019a1109
:030346000199d545
:0303470001999881
:0303480001995cbc
:03034900019920f7
:03034a000198e334
:03034b000198a76f
:03034c0001986aab
:03034d0001982de7
:03034e000197f123
:03034f000197b45f
:030350000197779b
:0303510001973ad7
:030352000196fd14
:030353000196c050
:030354000196838c
:03035500019646c8
:0303560001960904
:030357000195cc41
:0303580001958e7e
:03035900019551ba
:03035a00019513f7
:03035b000194d634
:03035c0001949871
:03035d0001945bad
:03035e0001941dea
:03035f000193df28
:030360000193a165
:03036100019363a2
:03036200019326de
:030363000192e81c
:030364000192a95a
:0303650001926b97
:0303660001922dd4
:030367000191ef12
:030368000191b14f
:030369000191728d
:03036a00019134ca
:03036b000190f509
:03036c000190b746
:03036d0001907884
:03036e0001903ac1
:03036f00018ffb00
:03037000018fbc3e
:03037100018f7d7c
:03037200018f3eba
:03037300018efff9
:03037400018ec037
:03037500018e8175
:03037600018e42b3
:03037700018e03f1
:03037800018dc430
:03037900018d846f
:03037a00018d45ad
:03037b00018d05ec
:03037c00018cc62b
:03037d00018c866a
:03037e00018c47a8
:03037f00018c07e7
:03038000018bc727
:03038100018b8766
:03038200018b48a4
:03038300018b08e3
:03038400018ac823
:03038500018a8862
:03038600018a48a1
:03038700018a07e1
:030388000189c721
:0303890001898760
:03038a000189479f
:03038b00018906df
:03038c000188c61f
:03038d000188855f
:03038e000188459e
:03038f00018804de
:030390000187c31f
:030391000187825f
:030392000187429e
:03039300018701de
:030394000186c01f
:0303950001867f5f
:0303960001863e9f
:030397000185fde0
:030398000185bc20
:0303990001857a61
:03039a00018539a1
:03039b000184f8e2
:03039c000184b623
:03039d0001847563
:03039e00018433a4
:03039f000183f2e5
:0303a0000183b026
:0303a10001836e67
:0303a20001832da7
:0303a3000182ebe9
:0303a4000182a92a
:0303a5000182676b
:0303a600018225ac
:0303a7000181e3ee
:0303a8000181a12f
:0303a90001815f70
:0303aa0001811db1
:0303ab000180daf4
:0303ac0001809835
:0303ad0001805676
:0303ae00018013b8
:0303af00017fd1fa
:0303b000017f8e3c
:0303b100017f4b7e
:0303b200017f09bf
:0303b300017ec602
:0303b400017e8344
:0303b500017e4086
:0303b600017dfdc9
:0303b700017dba0b
:0303b800017d774d
:0303b900017d348f
:0303ba00017cf1d2
:0303bb00017cae14
:0303bc00017c6b56
:0303bd00017c2799
:0303be00017be4dc
:0303bf00017ba11e
:0303c000017b5d61
:0303c100017b1aa3
:0303c200017ad6e7
:0303c300017a922a
:0303c400017a4f6c
:0303c500017a0baf
:0303c6000179c7f3
:0303c70001798336
:0303c80001793f79
:0303c9000178fbbd
:0303ca000178b700
:0303cb0001787343
:0303cc0001782f86
:0303cd000177ebca
:0303ce000177a60e
:0303cf0001776251
:0303d00001771e94
:0303d1000176d9d9
:0303d2000176951c
:0303d30001765060
:0303d40001760ca3
:0303d5000175c7e8
:0303d6000175822c
:0303d70001753d70
:0303d8000174f9b4
:0303d9000174b4f8
:0303da0001746f3c
:0303db0001742a80
:0303dc000173e5c5
:0303dd0001739f0a
:0303de0001735a4e
:0303df0001731592
:0303e0000172d0d7
:0303e10001728a1c
:0303e20001724560
:0303e300017200a4
:0303e4000171baea
:0303e5000171742f
:0303e60001712f73
:0303e7000170e9b9
:0303e8000170a3fe
:0303e90001705e42
:0303ea0001701887
:0303eb00016fd2cd
:0303ec00016f8c12
:0303ed00016f4657
:0303ee00016f009c
:0303ef00016ebae2
:0303f000016e7427
:0303f100016e2d6d
:0303f200016de7b3
:0303f300016da1f8
:0303f400016d5a3e
:0303f500016d1483
:0303f600016ccdca
:0303f700016c870f
:0303f800016c4055
:0303f900016bf99c
:0303fa00016bb3e1
:0303fb00016b6c27
:0303fc00016b256d
:0303fd00016adeb4
:0303fe00016a97fa
:0303ff00016a5040
:03040000016a0985
:030401000169c2cc
:0304020001697b12
:0304030001693458
:030404000168eca0
:030405000168a5e6
:0304060001685e2c
:0304070001681673
:030408000167cfba
:0304090001678701
:03040a0001674047
:03040b000166f88f
:03040c000166b0d6
:03040d000166681d
:03040e0001662163
:03040f000165d9ab
:03041000016591f2
:0304110001654939
:0304120001650180
:030413000164b9c8
:030414000164710f
:0304150001642857
:030416000163e09f
:03041700016398e6
:030418000163502d
:0304190001630775
:03041a000162bfbd
:03041b0001627605
:03041c0001622e4c
:03041d000161e595
:03041e0001619cdd
:03041f0001615424
:0304200001610b6c
:030421000160c2b5
:03042200016079fd
:0304230001603045
:03042400015fe78e
:03042500015f9ed6
:03042600015f551e
:03042700015f0c66
:03042800015ec3af
:03042900015e79f8
:03042a00015e3040
:03042b00015de789
:03042c00015d9dd2
:03042d00015d541a
:03042e00015d0a63
:03042f00015cc1ac
:03043000015c77f5
:03043100015c2d3e
:03043200015be487
:03043300015b9ad0
:03043400015b5019
:03043500015b0662
:03043600015abcac
:03043700015a72f5
:03043800015a283e
:030439000159de88
:03043a00015994d1
:03043b0001594a1a
:03043c000158ff65
:03043d000158b5ae
:03043e0001586bf7
:03043f0001582041
:030440000157d68b
:0304410001578bd5
:030442000157411e
:030443000156f669
:030444000156acb2
:03044500015661fc
:0304460001561646
:030447000155cb91
:03044800015580db
:0304490001553525
:03044a000154ea70
:03044b0001549fba
:03044c0001545404
:03044d000154094e
:03044e000153be99
:03044f00015373e3
:030450000153272e
:030451000152dc79
:03045200015291c3
:030453000152450e
:030454000151fa59
:030455000151aea4
:03045600015163ee
:0304570001511739
:030458000150cb85
:03045900015080cf
:03045a000150341a
:03045b00014fe866
:03045c00014f9cb1
:03045d00014f50fc
:03045e00014f0447
:03045f00014eb893
:03046000014e6cde
:03046100014e2029
:03046200014dd475
:03046300014d87c1
:03046400014d3b0c
:03046500014cef58
:03046600014ca2a4
:03046700014c56ef
:03046800014c093b
:03046900014bbd87
:03046a00014b70d3
:03046b00014b241e
:03046c00014ad76b
:03046d00014a8ab7
:03046e00014a3d03
:03046f000149f14f
:030470000149a49b
:03047100014957e7
:0304720001490a33
:030473000148bd80
:03047400014870cc
:0304750001482219
:030476000147d566
:03047700014788b2
:0304780001473bfe
:030479000146ed4c
:03047a000146a098
:03047b00014653e4
:03047c0001460531
:03047d000145b77f
:03047e0001456acb
:03047f0001451c18
:030480000144cf65
:03048100014481b2
:03048200014433ff
:030483000143e54d
:030484000143979a
:03048500014349e7
:030486000142fb35
:030487000142ad82
:0304880001425fcf
:030489000142111c
:03048a000141c36a
:03048b00014175b7
:03048c0001412704
:03048d000140d853
:03048e0001408aa0
:03048f0001403bee
:03049000013fed3c
:03049100013f9e8a
:03049200013f50d7
:03049300013f0125
:03049400013eb373
:03049500013e64c1
:03049600013e150f
:03049700013dc65e
:03049800013d78ab
:03049900013d29f9
:03049a00013cda48
:03049b00013c8b96
:03049c00013c3ce4
:03049d00013bed33
:03049e00013b9d82
:03049f00013b4ed0
:0304a000013aff1f
:0304a100013ab06d
:0304a200013a60bc
:0304a300013a110a
:0304a4000139c259
:0304a500013972a8
:0304a600013923f6
:0304a7000138d346
:0304a80001388395
:0304a900013834e3
:0304aa000137e433
:0304ab0001379482
:0304ac00013745d0
:0304ad000136f520
:0304ae000136a56f
:0304af00013655be
:0304b0000136050d
:0304b1000135b55d
:0304b200013565ac
:0304b300013515fb
:0304b4000134c54b
:0304b5000134749b
:0304b600013424ea
:0304b7000133d43a
:0304b8000133838a
:0304b900013333d9
:0304ba000132e329
:0304bb0001329279
:0304bc00013242c8
:0304bd000131f119
:0304be000131a069
:0304bf00013150b8
:0304c0000130ff09
:0304c1000130ae59
:0304c20001305da9
:0304c30001300cf9
:0304c400012fbc49
:0304c500012f6b99
:0304c600012f1ae9
:0304c700012ec93a
:0304c800012e778b
:0304c900012e26db
:0304ca00012dd52c
:0304cb00012d847c
:0304cc00012d33cc
:0304cd00012ce11e
:0304ce00012c906e
:0304cf00012c3fbe
:0304d000012bed10
:0304d100012b9c60
:0304d200012b4ab1
:0304d300012af803
:0304d400012aa753
:0304d500012a55a4
:0304d600012a03f5
:0304d7000129b246
:0304d80001296097
:0304d90001290ee8
:0304da000128bc3a
:0304db0001286a8b
:0304dc00012818dc
:0304dd000127c62e
:0304de000127747f
:0304df00012722d0
:0304e0000126d022
:0304e10001267e73
:0304e20001262bc5
:0304e3000125d917
:0304e40001258768
:0304e500012534ba
:0304e6000124e20c
:0304e70001248f5e
:0304e80001243daf
:0304e9000123ea02
:0304ea0001239853
:0304eb00012345a5
:0304ec000122f2f8
:0304ed000122a049
:0304ee0001224d9b
:0304ef000121faee
:0304f0000121a740
:0304f10001215492
:0304f200012101e4
:0304f3000120ae37
:0304f40001205b89
:0304f500012008db
:0304f600011fb52e
:0304f700011f6280
:0304f800011f0ed3
:0304f900011ebb26
:0304fa00011e6878
:0304fb00011e15ca
:0304fc00011dc11e
:0304fd00011d6e70
:0304fe00011d1ac3
:0304ff00011cc716
:03050000011c7368
:03050100011c20ba
:03050200011bcc0e
:03050300011b7861
:03050400011b24b4
:03050500011ad107
:03050600011a7d5a
:03050700011a29ad
:030508000119d501
:0305090001198154
:03050a0001192da7
:03050b000118d9fb
:03050c000118854e
:03050d00011831a1
:03050e000117ddf5
:03050f0001178948
:030510000117349c
:030511000116e0f0
:0305120001168c43
:0305130001163797
:030514000115e3eb
:0305150001158e3f
:0305160001153a92
:030517000114e5e7
:030518000114913a
:0305190001143c8e
:03051a000113e8e2
:03051b0001139336
:03051c0001133e8a
:03051d000112e9df
:03051e0001129433
:03051f0001124086
:030520000111ebdb
:030521000111962f
:0305220001114183
:030523000110ecd8
:030524000110972c
:0305250001104181
:03052600010fecd6
:03052700010f972a
:03052800010f427e
:03052900010eedd3
:03052a00010e9728
:03052b00010e427c
:03052c00010dedd1
:03052d00010d9726
:03052e00010d427a
:03052f00010cecd0
:03053000010c9625
:03053100010c4179
:03053200010bebcf
:03053300010b9623
:03053400010b4078
:03053500010aeace
:03053600010a9423
:03053700010a3e78
:030538000109e9cd
:0305390001099322
:03053a0001093d77
:03053b000108e7cd
:03053c0001089122
:03053d0001083a78
:03053e000107e4ce
:03053f0001078e23
:0305400001073878
:030541000106e2ce
:0305420001068b24
:0305430001063579
:030544000105dfcf
:0305450001058825
:030546000105327a
:030547000104dbd1
:0305480001048526
:0305490001042e7c
:03054a000103d8d2
:03054b0001038128
:03054c0001032a7e
:03054d000102d4d4
:03054e0001027d2a
:03054f0001022680
:030550000101cfd7
:030551000101782d
:0305520001012183
:030553000100cbd9
:030554000100742f
:0305550001001d85
:0305560000ffc5de
:0305570000ff6e34
:0305580000ff178a
:0305590000fec0e1
:03055a0000fe6937
:03055b0000fe128d
:03055c0000fdbae5
:03055d0000fd633b
:03055e0000fd0c91
:03055f0000fcb4e9
:0305600000fc5d3f
:0305610000fc0596
:0305620000fbaeed
:0305630000fb5644
:0305640000fafe9c
:0305650000faa7f2
:0305660000fa4f49
:0305670000f9f7a1
:0305680000f9a0f7
:0305690000f9484e
:03056a0000f8f0a6
:03056b0000f898fd
:03056c0000f84054
:03056d0000f7e8ac
:03056e0000f79003
:03056f0000f7385a
:0305700000f6e0b2
:0305710000f68809
:0305720000f63060
:0305730000f5d8b8
:0305740000f5800f
:0305750000f52767
:0305760000f4cfbf
:0305770000f47716
:0305780000f41f6d
:0305790000f3c6c6
:03057a0000f36e1d
:03057b0000f31575
:03057c0000f2bdcd
:03057d0000f26425
:03057e0000f20c7c
:03057f0000f1b3d5
:0305800000f15a2d
:0305810000f10284
:0305820000f0a9dd
:0305830000f05035
:0305840000eff88d
:0305850000ef9fe5
:0305860000ef463d
:0305870000eeed96
:0305880000ee94ee
:0305890000ee3b46
:03058a0000ede29f
:03058b0000ed89f7
:03058c0000ed304f
:03058d0000ecd7a8
:03058e0000ec7e00
:03058f0000ec2459
:0305900000ebcbb2
:0305910000eb720a
:0305920000eb1962
:0305930000eabfbc
:0305940000ea6614
:0305950000ea0d6c
:0305960000e9b3c6
:0305970000e95a1e
:0305980000e90077
:0305990000e8a7d0
:03059a0000e84d29
:03059b0000e7f482
:03059c0000e79adb
:03059d0000e74034
:03059e0000e6e78d
:03059f0000e68de6
:0305a00000e6333f
:0305a10000e5d999
:0305a20000e57ff2
:0305a30000e5254b
:0305a40000e4cca4
:0305a50000e472fd
:0305a60000e41856
:0305a70000e3beb0
:0305a80000e36409
:0305a90000e30963
:0305aa0000e2afbd
:0305ab0000e25516
:0305ac0000e1fb70
:0305ad0000e1a1c9
:0305ae0000e14623
:0305af0000e0ec7d
:0305b00000e092d6
:0305b10000e0382f
:0305b20000dfdd8a
:0305b30000df83e3
:0305b40000df283d
:0305b50000dece97
:0305b60000de73f1
:0305b70000de194a
:0305b80000ddbea5
:0305b90000dd63ff
:0305ba0000dd0958
:0305bb0000dcaeb3
:0305bc0000dc530d
:0305bd0000dbf967
:0305be0000db9ec1
:0305bf0000db431b
:0305c00000dae876
:0305c10000da8dd0
:0305c20000da322a
:0305c30000d9d785
:0305c40000d97cdf
:0305c50000d92139
:0305c60000d8c694
:0305c70000d86bee
:0305c80000d81048
:0305c90000d7b5a3
:0305ca0000d75afd
:0305cb0000d6fe59
:0305cc0000d6a3b3
:0305cd0000d6480d
:0305ce0000d5ed68
:0305cf0000d591c3
:0305d00000d5361d
:0305d10000d4da79
:0305d20000d47fd3
:0305d30000d4232e
:0305d40000d3c889
:0305d50000d36ce4
:0305d60000d3113e
:0305d70000d2b59a
:0305d80000d25af4
:0305d90000d1fe50
:0305da0000d1a2ab
:0305db0000d14705
:0305dc0000d0eb61
:0305dd0000d08fbc
:0305de0000d03317
:0305df0000cfd773
:0305e00000cf7bce
:0305e10000cf1f29
:0305e20000cec484
:0305e30000ce68df
:0305e40000ce0c3a
:0305e50000cdaf97
:0305e60000cd53f2
:0305e70000ccf74e
:0305e80000cc9ba9
:0305e90000cc3f04
:0305ea0000cbe360
:0305eb0000cb87bb
:0305ec0000cb2a17
:0305ed0000cace73
:0305ee0000ca72ce
:0305ef0000ca152a
:0305f00000c9b986
:0305f10000c95de1
:0305f20000c9003d
:0305f30000c8a499
:0305f40000c847f5
:0305f50000c7eb51
:0305f60000c78ead
:0305f70000c73109
:0305f80000c6d565
:0305f90000c678c1
:0305fa0000c61b1d
:0305fb0000c5bf79
:0305fc0000c562d5
:0305fd0000c50531
:0305fe0000c4a88e
:0305ff0000c44ce9
:0306000000c3ef45
:0306010000c392a1
:0306020000c335fd
:0306030000c2d85a
:0306040000c27bb6
:0306050000c21e12
:0306060000c1c16f
:0306070000c164cb
:0306080000c10727
:0306090000c0aa84
:03060a0000c04ce1
:03060b0000bfef3e
:03060c0000bf929a
:03060d0000bf35f6
:03060e0000bed853
:03060f0000be7ab0
:0306100000be1d0c
:0306110000bdc069
:0306120000bd62c6
:0306130000bd0522
:0306140000bca780
:0306150000bc4adc
:0306160000bbec3a
:0306170000bb8f96
:0306180000bb31f3
:0306190000bad450
:03061a0000ba76ad
:03061b0000ba180a
:03061c0000b9bb67
:03061d0000b95dc4
:03061e0000b8ff22
:03061f0000b8a27e
:0306200000b844db
:0306210000b7e639
:0306220000b78896
:0306230000b72af3
:0306240000b6cc51
:0306250000b66eae
:0306260000b6110a
:0306270000b5b368
:0306280000b555c5
:0306290000b4f723
:03062a0000b49881
:03062b0000b43ade
:03062c0000b3dc3c
:03062d0000b37e99
:03062e0000b320f6
:03062f0000b2c254
:0306300000b264b1
:0306310000b2050f
:0306320000b1a76d
:0306330000b149ca
:0306340000b0ea29
:0306350000b08c86
:0306360000b02ee3
:0306370000afcf42
:0306380000af719f
:0306390000af12fd
:03063a0000aeb45b
:03063b0000ae55b9
:03063c0000adf717
:03063d0000ad9875
:03063e0000ad3ad2
:03063f0000acdb31
:0306400000ac7c8f
:0306410000ac1eec
:0306420000abbf4b
:0306430000ab60a9
:0306440000ab0206
:0306450000aaa365
:0306460000aa44c3
:0306470000a9e522
:0306480000a98680
:0306490000a928dd
:03064a0000a8c93c
:03064b0000a86a9a
:03064c0000a80bf8
:03064d0000a7ac57
:03064e0000a74db5
:03064f0000a6ee14
:0306500000a68f72
:0306510000a630d0
:0306520000a5d12f
:0306530000a5718e
:0306540000a512ec
:0306550000a4b34b
:0306560000a454a9
:0306570000a3f508
:0306580000a39567
:0306590000a336c5
:03065a0000a2d724
:03065b0000a27882
:03065c0000a218e1
:03065d0000a1b940
:03065e0000a1599f
:03065f0000a0fafe
:0306600000a09b5c
:0306610000a03bbb
:03066200009fdc1a
:03066300009f7c79
:03066400009f1dd7
:03066500009ebd37
:03066600009e5d96
:03066700009dfef5
:03066800009d9e54
:03066900009d3fb2
:03066a00009cdf12
:03066b00009c7f71
:03066c00009c1fd0
:03066d00009bc02f
:03066e00009b608e
:03066f00009b00ed
:03067000009aa04d
:03067100009a40ac
:030672000099e10b
:030673000099816a
:03067400009921c9
:030675000098c129
:0306760000986188
:03067700009801e7
:030678000097a147
:03067900009741a6
:03067a000096e106
:03067b0000968165
:03067c00009621c4
:03067d000095c025
:03067e0000956084
:03067f00009500e3
:030680000094a043
:03068100009440a2
:030682000093df03
:0306830000937f62
:0306840000931fc1
:030685000092bf21
:0306860000925e81
:030687000091fee1
:0306880000919e40
:0306890000913da0
:03068a000090dd00
:03068b0000907c60
:03068c0000901cbf
:03068d00008fbb20
:03068e00008f5b7f
:03068f00008efae0
:03069000008e9a3f
:03069100008e399f
:03069200008dd9ff
:03069300008d785f
:03069400008d17bf
:03069500008cb71f
:03069600008c567f
:03069700008bf5e0
:03069800008b953f
:03069900008b349f
:03069a00008ad300
:03069b00008a7260
:03069c00008a12bf
:03069d000089b120
:03069e0000895080
:03069f000088efe1
:0306a00000888e41
:0306a10000882da1
:0306a2000087cc02
:0306a30000876c61
:0306a40000870bc1
:0306a5000086aa22
:0306a60000864982
:0306a7000085e8e3
:0306a80000858743
:0306a900008525a4
:0306aa000084c405
:0306ab0000846365
:0306ac00008402c5
:0306ad000083a126
:0306ae0000834086
:0306af000082dfe7
:0306b00000827d48
:0306b10000821ca8
:0306b2000081bb09
:0306b30000815a69
:0306b4000080f8cb
:0306b5000080972b
:0306b6000080368b
:0306b700007fd5ec
:0306b800007f734d
:0306b900007f12ad
:0306ba00007eb00f
:0306bb00007e4f6f
:0306bc00007deed0
:0306bd00007d8c31
:0306be00007d2b91
:0306bf00007cc9f3
:0306c000007c6853
:0306c100007c06b4
:0306c200007ba515
:0306c300007b4376
:0306c400007ae1d8
:0306c500007a8038
:0306c600007a1e99
:0306c7000079bdfa
:0306c80000795b5b
:0306c9000078f9bd
:0306ca000078981d
:0306cb000078367e
:0306cc000077d4e0
:0306cd0000777241
:0306ce00007711a1
:0306cf000076af03
:0306d00000764d64
:0306d1000075ebc6
:0306d20000758927
:0306d30000752887
:0306d4000074c6e9
:0306d5000074644a
:0306d600007402ab
:0306d7000073a00d
:0306d80000733e6e
:0306d9000072dcd0
:0306da0000727a31
:0306db0000721892
:0306dc000071b6f4
:0306dd0000715455
:0306de000070f2b7
:0306df0000709018
:0306e00000702e79
:0306e100006fccdb
:0306e200006f6a3c
:0306e300006f079e
:0306e400006ea500
:0306e500006e4361
:0306e600006de1c3
:0306e700006d7f24
:0306e800006d1d85
:0306e900006cbae8
:0306ea00006c5849
:0306eb00006bf6ab
:0306ec00006b940c
:0306ed00006b316e
:0306ee00006acfd0
:0306ef00006a6d31
:0306f000006a0a93
:0306f1000069a8f5
:0306f20000694656
:0306f3000068e3b9
:0306f4000068811a
:0306f50000681e7c
:0306f6000067bcde
:0306f70000675940
:0306f8000066f7a2
:0306f90000669503
:0306fa0000663265
:0306fb000065cfc8
:0306fc0000656d29
:0306fd0000650a8b
:0306fe000064a8ed
:0306ff000064454f
:030700000063e3b0
:0307010000638012
:0307020000631d74
:030703000062bbd6
:0307040000625838
:030705000061f69a
:03070600006193fc
:030707000061305e
:030708000060cdc1
:0307090000606b22
:03070a0000600884
:03070b00005fa5e7
:03070c00005f4249
:03070d00005ee0ab
:03070e00005e7d0d
:03070f00005e1a6f
:03071000005db7d2
:03071100005d5434
:03071200005cf296
:03071300005c8ff8
:03071400005c2c5a
:03071500005bc9bd
:03071600005b661f
:03071700005b0381
:03071800005aa0e4
:03071900005a3d46
:03071a000059daa9
:03071b000059770b
:03071c000059146d
:03071d000058b1d0
:03071e0000584e32
:03071f000057eb95
:03072000005788f7
:0307210000572559
:030722000056c2bc
:0307230000565f1e
:030724000055fc81
:03072500005599e3
:0307260000553645
:030727000054d2a9
:0307280000546f0b
:0307290000540c6d
:03072a000053a9d0
:03072b0000534632
:03072c000052e395
:03072d0000527ff8
:03072e0000521c5a
:03072f000051b9bd
:030730000051561f
:030731000050f283
:0307320000508fe5
:0307330000502c47
:03073400004fc9aa
:03073500004f650d
:03073600004f026f
:03073700004e9fd2
:03073800004e3b35
:03073900004dd898
:03073a00004d75fa
:03073b00004d115d
:03073c00004caec0
:03073d00004c4a23
:03073e00004be786
:03073f00004b84e8
:03074000004b204b
:03074100004abdae
:03074200004a5911
:030743000049f674
:03074400004992d7
:0307450000492f39
:030746000048cb9d
:03074700004868ff
:0307480000480462
:030749000047a1c5
:03074a0000473d28
:03074b000046da8b
:03074c00004676ee
:03074d0000461251
:03074e000045afb4
:03074f0000454b17
:030750000044e87a
:03075100004484dd
:0307520000442040
:030753000043bda3
:0307540000435906
:030755000042f56a
:03075600004292cc
:0307570000422e2f
:030758000041ca93
:03075900004167f5
:03075a0000410358
:03075b0000409fbc
:03075c0000403c1e
:03075d00003fd882
:03075e00003f74e5
:03075f00003f1048
:03076000003eacac
:03076100003e490e
:03076200003de572
:03076300003d81d5
:03076400003d1d38
:03076500003cba9b
:03076600003c56fe
:03076700003bf262
:03076800003b8ec5
:03076900003b2a28
:03076a00003ac68c
:03076b00003a62ef
:03076c000039ff52
:03076d0000399bb5
:03076e0000393718
:03076f000038d37c
:0307700000386fdf
:0307710000380b42
:030772000037a7a6
:0307730000374309
:030774000036df6d
:0307750000367bd0
:0307760000361733
:030777000035b397
:0307780000354ffa
:030779000034eb5e
:03077a00003487c1
:03077b0000342324
:03077c000033bf88
:03077d0000335beb
:03077e000032f74f
:03077f00003293b2
:0307800000322f15
:030781000031cb79
:03078200003167dc
:030783000031033f
:0307840000309fa3
:0307850000303b06
:03078600002fd76a
:03078700002f73cd
:03078800002f0f30
:03078900002eaa95
:03078a00002e46f8
:03078b00002de25c
:03078c00002d7ebf
:03078d00002d1a22
:03078e00002cb686
:03078f00002c52e9
:03079000002bee4d
:03079100002b89b1
:03079200002b2514
:03079300002ac178
:03079400002a5ddb
:030795000029f93f
:03079600002994a3
:0307970000293006
:030798000028cc6a
:03079900002868cd
:03079a0000280430
:03079b0000279f95
:03079c0000273bf8
:03079d000026d75c
:03079e00002673bf
:03079f0000260e23
:0307a0000025aa87
:0307a100002546ea
:0307a2000024e24e
:0307a30000247db2
:0307a40000241915
:0307a5000023b579
:0307a600002351dc
:0307a7000022ec41
:0307a800002288a4
:0307a90000222407
:0307aa000021bf6c
:0307ab0000215bcf
:0307ac000020f733
:0307ad0000209297
:0307ae0000202efa
:0307af00001fca5e
:0307b000001f65c2
:0307b100001f0125
:0307b200001e9d89
:0307b300001e38ed
:0307b400001dd451
:0307b500001d70b4
:0307b600001d0b18
:0307b700001ca77c
:0307b800001c42e0
:0307b900001bde44
:0307ba00001b7aa7
:0307bb00001b150b
:0307bc00001ab16f
:0307bd00001a4dd2
:0307be000019e837
:0307bf000019849a
:0307c00000191ffe
:0307c1000018bb62
:0307c200001857c5
:0307c3000017f22a
:0307c40000178e8d
:0307c500001729f1
:0307c6000016c555
:0307c700001660b9
:0307c8000015fc1d
:0307c90000159880
:0307ca00001533e4
:0307cb000014cf48
:0307cc0000146aac
:0307cd000014060f
:0307ce000013a174
:0307cf0000133dd7
:0307d0000012d83c
:0307d1000012749f
:0307d20000120f03
:0307d3000011ab67
:0307d400001146cb
:0307d5000010e22f
:0307d60000107e92
:0307d700001019f6
:0307d800000fb55a
:0307d900000f50be
:0307da00000eec22
:0307db00000e8786
:0307dc00000e23e9
:0307dd00000dbe4e
:0307de00000d5ab1
:0307df00000cf516
:0307e000000c9179
:0307e100000c2cdd
:0307e200000bc841
:0307e300000b63a5
:0307e400000aff09
:0307e500000a9a6d
:0307e600000a36d0
:0307e7000009d135
:0307e80000096d98
:0307e900000908fc
:0307ea000008a460
:0307eb0000083fc4
:0307ec000007db28
:0307ed000007768c
:0307ee00000711f0
:0307ef000006ad54
:0307f000000648b8
:0307f1000005e41c
:0307f20000057f80
:0307f30000051be3
:0307f4000004b648
:0307f500000452ab
:0307f6000003ed10
:0307f70000038973
:0307f800000324d7
:0307f9000002c03b
:0307fa0000025b9f
:0307fb000001f703
:0307fc0000019267
:0307fd0000012eca
:0307fe000000c92f
:0307ff0000006592
:03080000000000f5
:00000001FF
